:020000040800F2
:10000000401900204D010008DD040008DF0400084D
:10001000E3040008E7040008EB0400080000000007
:10002000000000000000000000000000EF040008D5
:10003000F104000800000000F3040008F5040008C3
:1000400067010008670100086701000867010008F0
:1000500067010008670100086701000867010008E0
:1000600067010008670100086701000867010008D0
:1000700067010008670100086701000867010008C0
:1000800067010008670100086701000867010008B0
:1000900067010008670100086701000867010008A0
:1000A0006701000867010008670100086701000890
:1000B0006701000867010008670100086701000880
:1000C0006701000867010008670100086701000870
:1000D00067010008A905000867010008670100081A
:1000E0006701000867010008670100086701000850
:1000F0006701000867010008670100086701000840
:10010000670100086701000867010008670100082F
:10011000670100086701000867010008670100081F
:10012000670100086701000867010008670100080F
:10013000DFF80CD005F0C4F800480047C101000802
:100140004019002080F30888704700000648804767
:1001500006480047FEE7FEE7FEE7FEE7FEE7FEE7AC
:10016000FEE7FEE7FEE7FEE7870A00083101000828
:1001700008B50121082001F023F80120ADF80000A6
:1001800003208DF8020010208DF8030069468F4887
:1001900000F05AFD08BD10B50346002000BF03E083
:1001A00084181C54441CA0B28842F9D310BD01B578
:1001B00002E00098401E009000980028F9D108BD88
:1001C00000250024A046A1460026482001F0C4FED8
:1001D00000F092F97EA005F0A5F8FFF7C9FF00F046
:1001E0009BFA00F0CEFA1021824800F05CFB10214F
:1001F000814800F093FBCAE017E080A005F092F878
:1002000083A005F08FF84FF6FF70FFF7D0FF854809
:10021000006880F004008349086008F101001FFABB
:1002200080F8B8F10A0F00DDA5E002F027F80028F9
:10023000E3D104207B49091D0860091D08607A4844
:10024000FFF7B5FF01F0DFFF074678A005F06AF879
:10025000F90A7AA005F066F8002F76D000BF7D4934
:10026000002003F013F920B14FF6FF70FFF79FFF56
:10027000F5E700BF012278A17A4803F01AF97A491C
:10028000086008460068002864D17648C0684FEAD4
:10029000502974488089C0F30806002527E0734B75
:1002A0004FF4007272496F4803F0BAF900240EE06F
:1002B0006F4810F81400012101EB44016C4A515CB5
:1002C00000EB01206B4921F81400601C84B2FF2C64
:1002D000EEDD5448006880F0040052490860664929
:1002E00001EB4520CA14634904F021FF6D1C4D4504
:1002F000D5D336B35D4B32465D495A4803F090F989
:1003000000240EE05A4810F81400012101EB4401CA
:10031000574A515C00EB0120564921F81400601C3B
:1003200084B206EBD671B4EB610FEBDBB24606EBA1
:10033000DA71C1F34F02504901EB45204D4904F0F9
:10034000F6FE484803F0CFFB00E008E04BA004F0C5
:10035000E9FF04E04FF6FF70FFF729FF8AE74CA0A2
:1003600004F0E0FF444804F063FF04202D49083105
:10037000086000BFFEE704202A49091D08604DA05F
:1003800004F0D0FF3C4804F053FF00BFFEE733E722
:1003900070B504460D46E1B24F4801F0B1F800BF18
:1003A0004D48008800F080000028F9D0204670BD3C
:1003B00000BF4948008800F020000028F9D04648D6
:1003C000001D0088C0F3080070470000000C0140C9
:1003D0000D0A203D3D3D3D3D3D3D3D3D3D3D3D3DCD
:1003E000626F6F746C6F6164657220737461727494
:1003F0000D0A000014000020200D00200D0A2053DB
:10040000442043617264204572726F7221000000C3
:100410000D0A20506C6561736520436865636B202D
:10042000210000000C180140FFFF0F000D0A2020E2
:10043000BCECB2E2B5BD7364BFA820000D0A205326
:1004400044BFA8B5C4C8DDC1BFA3BA2564204D42CE
:100450000D0A0000D0040020303A2F544553542E8A
:1004600062696E00A8020020000000201000002039
:1004700020090020200B0020008000080D0A20CE5B
:10048000C4BCFEB4B4BDA8B3C9B9A6200A0000001C
:100490000D0A203D3D3D3D3D3D3D3D3D3D3D3D3D0C
:1004A000626F6F746C6F6164657220656E64720A4E
:1004B000000000000D0A206961705F6C6F61645F6D
:1004C00061707020212075706461746520666169B7
:1004D0006C200D0A0000000000380140704700BF8A
:1004E000FEE700BFFEE700BFFEE700BFFEE7704784
:1004F000704770477047000000B585B001210520A6
:1005000000F05EFE0121880300F05AFE4FF40070F7
:10051000ADF8100018208DF8130003208DF812009C
:1005200004A92C4800F090FB4FF48060ADF8100057
:1005300004208DF8130004A9264800F085FB04A9C7
:10054000244800F081FB4FF4E13000900020ADF82A
:100550000400ADF80600ADF80800ADF80C000C2062
:10056000ADF80A0069461C4800F0D1FE012240F2B5
:100570002551194800F063FF0121174800F053FF8F
:100580004021154801F037F805B000BD10B504460C
:100590002146114800F0B4FF00BF80210E4801F051
:1005A0001DF80028F9D010BD10B540F225510A48B9
:1005B00001F02AF860B1084800F0A6FFC4B2632C2D
:1005C00006D100247720FFF7E1FF9720FFF7DEFF39
:1005D00010BD0000000801400038014000B587B0A0
:1005E000012141F2090000F0EBFD0121042000F09F
:1005F000E7FD0121434800F0F8FB0121084600F027
:10060000F4FB3820ADF8040018208DF80700032013
:100610008DF8060001A93C4800F016FB38213A4845
:1006200000F0BFFB4FF40040ADF8040010208DF83F
:10063000070001A9354800F007FB4FF4004133489B
:1006400000F0AFFB0020ADF808004FF48270ADF869
:100650000A000020ADF80C000220ADF80E000120C9
:10066000ADF810004002ADF812003820ADF81400CB
:100670000020ADF816000720ADF8180002A92448A4
:1006800001F02CF80121224801F0CDF807B000BD9F
:1006900010B504461F4800884FF6C77108401D4931
:1006A000088008460088204308800121184801F08E
:1006B000BAF810BD70B50546002405E0601CC4B250
:1006C000C82C01DD002070BD0221114801F02FF976
:1006D0000028F3D029460E4801F0D6F8002405E0A2
:1006E000601CC4B2C82C01DD0020ECE701210848E1
:1006F00001F01DF90028F3D0054801F0C7F8C0B299
:10070000E1E7000000023000000C01400008014059
:10071000003001400038004008B50121402000F0C1
:100720004FFD0420ADF8000010208DF803000320D9
:100730008DF802006946024800F086FA08BD000004
:100740000018014070B502460B464FF6FF700024BA
:1007500014E012F8011B81EA000505F00F05834E35
:1007600036F8155085EA201080EA211505F00F05AE
:1007700036F8155085EA2010651CACB29C42E8DBC7
:1007800070BDFEB500277A480468001D0568001D8D
:100790000668E0B28DF80000200A8DF80100200CF8
:1007A0008DF80200200E8DF80300E8B28DF80400E9
:1007B000280A8DF80500280C8DF80600280E8DF803
:1007C0000700F0B28DF80800300A8DF80900300CEF
:1007D0008DF80A00300E8DF80B0000BF0DE01DF8FB
:1007E000071064A004F09EFD00BF8021644800F063
:1007F000F5FE0028F9D0781CC7B20C2FEFDB61A002
:1008000004F090FD0C216846FFF79CFF5E490880CC
:10081000084601885DA004F085FD5B48008848F625
:10082000A97188423BD0584800884AF2AF7188428B
:1008300035D05548008842F6AF7188422FD05248D3
:1008400000884BF6EE61884229D04F48008849F273
:100850000A41884223D04C48008842F6CB21884286
:100860001DD04948008842F29061884217D046481E
:1008700000884DF2E561884211D04348008842F279
:10088000AF5188420BD0404800884BF2AC6188429F
:1008900005D03D4800884AF65261884201D10120C6
:1008A000FEBD00BFFEE770B505460C4600203B4983
:1008B0000860012000F09BFB01F08FF8342001F06C
:1008C00027FB374801F0CEF819E0344A126835F8B2
:1008D0001210324A1268324B03EB420001F0C5F9A4
:1008E0002E480068401C2D49086008460068A04258
:1008F00005D900202B4908700846007870BD2748AC
:100900000068A042E1D901F074F8002000F06FFB0C
:1009100001202449087008460078EFE702460020CD
:100920001E4B186017E01D4800681D4B33F810007F
:100930001A4B1B6822F8130018480068401C174B1C
:10094000186018460068884205D90020154B1870B9
:10095000184600787047114800688842E3D30120A8
:10096000104B187018460078F4E70000C6570008CE
:10097000E8F7FF1F3078253032782D2D0000000079
:10098000003801400D0A0000340000204352434962
:1009900044203D2025640D0A00000000380000209E
:1009A00000F00108360000200CB5002001900090F6
:1009B0006C48006840F480306A49086000BF6948AC
:1009C000006800F4003000900198401C01900098ED
:1009D00018B90198B0F5A06FF1D16248006800F431
:1009E000003010B10120009001E00020009000983C
:1009F000012843D15C48006840F010005A49086063
:100A00000846006820F0030008600846006840F0CF
:100A100002000860534840685249486008464068F0
:100A200048600846406840F4806048600846406876
:100A300020F47C1048600846406840F4E8104860A4
:100A40000846006840F08070086000BF45480068B4
:100A500000F000700028F9D04248406820F0030000
:100A6000404948600846406840F00200486000BFC6
:100A70003C48406800F00C000828F9D10CBD10B5C6
:100A8000FFF792FF10BD10B53648006840F0010036
:100A90003449086008464068344908403149486094
:100AA00008460068324908402E4908600846006838
:100AB00020F4802008600846406820F4FE0048606A
:100AC0004FF41F008860FFF7DAFF4FF000602949FC
:100AD000086010BD10B5002100200022214B5B688A
:100AE00003F00C0121B1042906D0082928D107E020
:100AF000214B224C236027E01F4B204C236023E036
:100B0000184B5B6803F47010164B5B6803F480327B
:100B1000022303EB904022B9194B4343174C236047
:100B20000DE0104B5B6803F4003323B1144B4343D7
:100B3000124C236003E0104B4343104C236003E04E
:100B40000D4B0E4C236000BF00BF064B5B68C3F328
:100B500003130C4CE15C094B1B68CB40074C236032
:100B600010BD000000100240002002400000FFF80D
:100B7000FFFFF6FE08ED00E000127A003C000020C6
:100B800000093D004000002010B50446CC488442D6
:100B900008D10121042000F02DFB0021042000F0E9
:100BA00029FB46E0C748844208D10121082000F013
:100BB00021FB0021082000F01DFB3AE0C2488442DE
:100BC00008D10121102000F015FB0021102000F0B9
:100BD00011FB2EE0BD48844208D10121202000F005
:100BE00009FB0021202000F005FB22E0B8488442E8
:100BF00008D10121402000F0FDFA0021402000F042
:100C0000F9FA16E0B348844208D10121802000F0AF
:100C1000F1FA0021802000F0EDFA0AE0AE488442AB
:100C200007D10121801500F0E5FA0021A01500F0A0
:100C3000E1FA10BD10B50121084600F0DBFA0021F1
:100C4000012000F0D7FA10BD2DE9F0410246002541
:100C50000026002000230024002791F803C00CF098
:100C60000F0591F803C00CF0100CBCF1000F03D07D
:100C700091F802C04CEA050591F800C0BCF1000FE4
:100C800031D0146800202BE04FF0010C0CFA00F377
:100C9000B1F800C00CEA03069E4220D183004FF059
:100CA0000F0C0CFA03F7BC4305FA03FC4CEA0404EE
:100CB00091F803C0BCF1280F06D14FF0010C0CFADB
:100CC00000FCC2F814C00AE091F803C0BCF1480F60
:100CD00005D14FF0010C0CFA00FCC2F810C0401C0A
:100CE0000828D1D31460B1F800C0BCF1FF0F34DD87
:100CF000546800202EE000F1080C4FF0010808FABB
:100D00000CF3B1F800C00CEA03069E4221D1830027
:100D10004FF00F0C0CFA03F7BC4305FA03FC4CEA46
:100D2000040491F803C0BCF1280F05D100F1080CB0
:100D300008FA0CF8C2F8148091F803C0BCF1480F0F
:100D400007D100F1080C4FF0010808FA0CF8C2F8BE
:100D50001080401C0828CED35460BDE8F0814FF6C7
:100D6000FF710180022181700421C1707047024629
:100D7000002093680B400BB1012000E00020704779
:100D80000146886880B2704702460020D3680B4055
:100D90000BB1012000E0002070470146C86880B216
:100DA000704701617047416170470AB1016100E01D
:100DB00041617047C16070474FF480320A438261DD
:100DC0008161826182698269704702460020434BDB
:100DD00018684FF68073184040EA021008433F4BF2
:100DE000186070473E49C8617047F0B50A46002355
:100DF00000240021002500F00046B6F1004F02D18A
:100E0000364EF16901E0354E7168C0F3034583B297
:100E100000F44016B6F5401F08D121F070612F4E46
:100E2000766826F070662D4F7E6012E000F4801622
:100E3000B6F5801F06D1032606FA05F4A14341F05A
:100E4000706106E0460D360103FA06F6B14341F043
:100E5000706122B1460D360103FA06F6314300F007
:100E60000046B6F1004F02D11C4EF16101E01B4E6D
:100E70007160F0BD30B500228B071C0F0F2303FA01
:100E800004F2164B08338C1053F824309343134C60
:100E900008348D1044F8253023468C1053F8243044
:100EA0008C07240F00FA04F423430C4C08348D10F3
:100EB00044F8253030BD0A49DC3108607047000035
:100EC00000080140000C01400010014000140140E6
:100ED00000180140001C01400020014000000140BA
:100EE00000002042DF48006840F00100DD49086052
:100EF00008464068DC490840DA494860084600680E
:100F0000DA490840D74908600846006820F4802084
:100F100008600846406820F4FE0048604FF41F0057
:100F200088607047CF49096821F48031CD4A11604B
:100F30001146096821F480211160B0F5803F03D08B
:100F4000B0F5802F0ED106E0C649096841F4803122
:100F5000C44A116007E0C349096841F4A021C14AAD
:100F6000116000E000BF00BF704710B501460022CD
:100F7000002300204A11012A02D1BA4C236806E05E
:100F8000022A02D1B74C236A01E0B64C636A01F031
:100F90001F02012494401C400CB1012000E00020FD
:100FA00010BD38B5002000900024002500BF31207E
:100FB000FFF7DBFF05460098401C00900098B0F555
:100FC000A06F01D0002DF2D03120FFF7CEFF08B185
:100FD000012400E00024204638BD01460020A14A3B
:100FE000106820F0F80040EAC10010607047A04986
:100FF00008607047024600209A4B586820F47C1025
:1010000042EA01031843974B5860704798490866B5
:10101000704701460020934A506820F003000843BF
:10102000506070478F48406800F00C0070470146E0
:1010300000208C4A506820F0F00008435060704750
:1010400001460020874A506820F4E0600843506061
:10105000704701460020834A506820F4605040EAFF
:10106000C1005060704729B17E4A527A02437D4BDD
:101070005A7204E07B4A527A82437A4B5A72704722
:101080007B49D8310860704701460020754A506896
:1010900020F440400843506070470021714A2032DC
:1010A0001170704A82F82010012802D004280AD159
:1010B00004E001216B4A2032117005E00521694AE4
:1010C0002032117000E000BF00BF7047694908601E
:1010D00070476449096A0143624A11627047654971
:1010E00044390860704730B50021002200240023F5
:1010F0005C4D6D6805F00C0121B1042905D008296B
:1011000023D105E05C4D056022E05B4D05601FE0EA
:10111000544D6D6805F47012524D6D6805F48034BD
:10112000022505EB92421CB9544D554305600BE076
:101130004C4D6D6805F400351DB1504D55430560AB
:1011400002E04D4D5543056002E04B4D056000BF88
:1011500000BF444D6D6805F0F0010909484D6B5C16
:101160000568DD4045603F4D6D6805F4E061090AA2
:10117000434D6B5C4568DD4085603A4D6D6805F414
:101180006051C90A3E4D6B5C4568DD40C560354D18
:101190006D6805F44041890B3A4D6B5CC568B5FB41
:1011A000F3F5056130BD29B12E4A526902432D4B3A
:1011B0005A6104E02B4A526982432A4B5A617047B4
:1011C00029B1284A92690243264B9A6104E0254AD4
:1011D00092698243234B9A61704729B1214AD269AF
:1011E0000243204BDA6104E01E4AD26982431D4B60
:1011F000DA61704729B11B4AD2680243194BDA60A1
:1012000004E0184AD2688243164BDA60704729B16D
:10121000144A12690243134B1A6104E0114A12691D
:101220008243104B1A617047124940390860704779
:101230000F49C86470470B49C87170470948406A34
:1012400040F0807007494862704701460020054A17
:1012500092680A400AB1012000E00020704701496D
:1012600088727047001002400000FFF8FFFFF6FE92
:10127000000042428004424200127A0000093D0010
:10128000500000206000002010B50446FB48844256
:1012900009D101218803FFF7ADFF00214FF4804001
:1012A000FFF7A8FF32E0F648844209D10121480443
:1012B000FFF7ADFF00214FF40030FFF7A8FF25E056
:1012C000F048844209D101218804FFF7A0FF0021E2
:1012D0004FF48020FFF79BFF18E0EB48844209D1D0
:1012E0000121C804FFF793FF00214FF40020FFF70E
:1012F0008EFF0BE0E548844208D101210805FFF785
:1013000086FF00214FF48010FFF781FF10BD2DE90B
:10131000F04786B005460E460024A24600BFA1460F
:101320000027B08900B100BF2F462C8A4CF6FF7011
:101330000440F08804432C82AC894EF6F31004403C
:10134000B08831890843718908430443AC81AC8A71
:101350004FF6FF400440B0890443AC8201A8FFF778
:10136000C2FEC648874202D1DDF810A001E0DDF8D8
:101370000CA0A88900F4004040B10AEBCA0000EBC1
:101380000A1031684900B0FBF1F807E00AEBCA0027
:1013900000EB0A1031688900B0FBF1F86420B8FB5B
:1013A000F0F004012009642101FB1089A88900F4F0
:1013B000004040B1322000EBC900B0FBF1F000F07A
:1013C0000700044308E0322000EB09106421B0FB61
:1013D000F1F000F00F0004432C8106B0BDE8F08767
:1013E0004FF41651016000218180C18001810C21E0
:1013F000418100218181704710B502460020108A8A
:101400004FF2FF0318400B884C8823438C882343FA
:10141000CC8823431843108210BD002101804180F5
:101420008180C180704721B1828942F4005282815B
:1014300004E082894DF6FF731A4082817047F0B54F
:101440000346002400260025002040F66A17B94212
:1014500000D100BF1846C1F3421401F01F06012756
:1014600007FA06F5012C01D10C3004E0022C01D161
:10147000103000E014301AB107682F43076002E013
:101480000768AF430760F0BD1AB1838A0B438382BC
:1014900002E0838A8B4383827047028A4FF6F0739F
:1014A0001A400282028A0A430282704782894FF2FE
:1014B000FF731A40828182890A438281704721B179
:1014C000828942F00202828104E082894FF6FD7334
:1014D0001A4082817047028A4FF6DF731A400282F7
:1014E000028A0A430282704721B1028A42F4804292
:1014F000028204E0028A4BF6FF731A4002827047B0
:10150000C1F308028280704701468888C0F3080052
:101510007047818941F0010181817047028BD2B20D
:101520000283028B42EA012202837047028B02F49B
:101530007F420283028B0A430283704721B1828A71
:1015400042F02002828204E0828A4FF6DF731A4062
:101550008282704721B1828A42F01002828204E0C6
:10156000828A4FF6EF731A408282704721B1828AD5
:1015700042F00802828204E0828A4FF6F7731A4032
:101580008282704721B1828942F40042828103E065
:101590008289C2F30E028281704721B1828A42F4AD
:1015A0000062828204E0828A4FF2FF731A408282D4
:1015B0007047828A4FF6FB731A408282828A0A43FE
:1015C0008282704721B1828A42F00202828204E064
:1015D000828A4FF6FD731A408282704702460020CD
:1015E000B1F5007F00D100BF13880B400BB1012083
:1015F00000E00020704701F40072B2F5007F00D1D6
:1016000000BFCA430280704770B502460024002321
:101610000025002040F66A16B14200D100BFC1F398
:10162000421501F01F03012606FA03F3012D02D132
:101630009689334006E0022D02D1168A334001E03C
:10164000968A33400C12012606FA04F416883440B8
:1016500013B10CB1012000E0002070BD10B50022D4
:10166000002340F66A14A14200D100BF0A120124EF
:101670009440A3B2DC43048010BD00000038014058
:101680000044004000480040004C00400050004032
:1016900010B50446BE48844208D101218014FFF7EA
:1016A000A9FD0021A014FFF7A5FD16E0B94884426A
:1016B00008D101210014FFF7AAFD00212014FFF733
:1016C000A6FD0AE0B448844207D10121C013FFF708
:1016D0009EFD0021E013FFF79AFD10BD10B500221A
:1016E000028802F441520B884C8823438C882343A0
:1016F000CC8823430C8923434C8923438C8923437F
:10170000CC8923431A430280838B4FF2FF7423401A
:1017100083830B8A038210BD2DE9F04F85B0054607
:101720000C464FF0000902274FF000084FF0010B64
:101730000026B246A88B4FF240010840A883022041
:101740002884B5F81C90A068022801D100BF38E0B9
:10175000A08810B94FF0010B01E04FF0020B8D484B
:10176000854200D100E000BF6846FFF7BCFCDDF811
:1017700000A0E088B0F5007F0AD14FEA1A2000EB04
:1017800080004000A168B0FBF1F0401D86B20BE084
:101790004FEA4B10BAFBF0F000EB80004000A1686C
:1017A000B0FBF1F0401D86B20A20B6FBF0F606F061
:1017B0000108A6EB0800C0F34F074FF6FF7000EAE0
:1017C0000828022F01DBFF2F02DD02274FF000085F
:1017D000E08840EA080038432884A088A1890843AB
:1017E000618808432188084340F4006040EA090901
:1017F000A5F81C9005B0BDE8F08F00210180418064
:101800008180C180018141818181C1810721018263
:1018100070470021018041808180C1800221816068
:1018200000218181704721B1028842F0400202808C
:1018300004E002884FF6BF731A400280704721B15E
:10184000828B42F48062828304E0828B4FF6FF3306
:101850001A408283704730B5002400230C11012503
:10186000A540ABB21AB185881D43858002E085880A
:101870009D43858030BD1AB183880B43838002E08D
:1018800083888B43838070478181704701468889B4
:1018900070474FF6FF62914204D0028842F4807292
:1018A000028004E002884FF6FF631A40028070470E
:1018B00021B1828842F00402828004E082884FF6DF
:1018C000FB731A408280704702884FF2FF731A4000
:1018D000028002880A4302807047018841F48051E7
:1018E0000180704721B1028842F40052028004E076
:1018F00002884DF6FF731A400280704702460020AE
:10190000012901D0108B00E0908A70470146088AB7
:101910007047B1F5804F04D1028842F480420280C2
:1019200004E002884BF6FF731A40028070470246BB
:10193000002013890B400BB1012000E0002070470C
:10194000CA4302817047F0B50246002000240023FC
:10195000002501F00F070126BE40B4B20B1101268D
:101960009E40B3B2968806EA03051689264016B152
:101970000DB1012000E00020F0BD10B5002201F003
:101980000F040123A3409AB2D343038110BD00008A
:101990000030014000380040003C0040014600207B
:1019A000FE4A106800F03800084310607047FB4999
:1019B000096821F00801F94A1160114609680143DC
:1019C00011607047F549096821F01001F34A116070
:1019D00011460968014311607047F148EF494860BA
:1019E000F04848607047EE48EC494860ED48486070
:1019F0007047EA48006940F08000E8490861704794
:101A0000E648006940F08000E4490861704704201E
:101A1000E249C96801F0010109B101200EE0DF4986
:101A2000C96801F0040109B1022007E0DB49C96877
:101A300001F0100109B1032000E00420704700B557
:101A400002460423FFF7E3FF034603E0FFF7DFFF4F
:101A50000346521E012B01D1002AF7D102B90523FA
:101A6000184600BD30B5044604254FF43020FFF77A
:101A7000E6FF0546042D17D1C848006940F0020072
:101A8000C649086108464461006940F040000861A9
:101A90004FF43020FFF7D3FF0546C048006941F6F8
:101AA000FD710840BD490861284630BD10B50424C9
:101AB0004FF43020FFF7C3FF0446042C16D1B7487B
:101AC000006940F00400B54908610846006940F02B
:101AD000400008614FF43020FFF7B1FF0446AF48E3
:101AE000006941F6FB710840AC490861204610BD11
:101AF00000B502460423FFF78AFF034603E0FFF721
:101B000086FF0346521E012B01D1002AF7D102B9EC
:101B10000523184600BD10B504244FF43020FFF70C
:101B2000E7FF0446042C16D19C48006940F00400ED
:101B30009A4908610846006940F0400008614FF486
:101B40003020FFF7D5FF04469448006941F6FB7149
:101B5000084092490861204610BD00208F49C9699C
:101B600001F0020109B1012000E00020704730B50A
:101B7000A5250424FFF7F1FF00B100254FF4302024
:101B8000FFF75DFF0446042C3AD1854883498860FD
:101B9000844888600846006940F0200008610846D3
:101BA000006940F0400008614FF43020FFF747FF24
:101BB0000446042C1BD17948006941F6DF710840C6
:101BC000764908610846006940F0100008617648CF
:101BD0000580E002FFF733FF0446052C10D06F4864
:101BE000006941F6EF7108406C49086108E0052C76
:101BF00006D06A48006941F6EF71084067490861FC
:101C0000204630BD78B506460C46042500200090DD
:101C1000E802FFF714FF0546042D24D15F48006950
:101C200040F001005D4908613480E802FFF707FFDA
:101C30000546042D10D1B01C0090200C009908809E
:101C4000E802FFF7FCFE05465448006941F6FE71C4
:101C500008405249086106E05048006941F6FE71AB
:101C600008404E490861284678BD70B504460D46C7
:101C70000426F002FFF7E3FE0646042E11D1474882
:101C8000006940F00100454908612580F002FFF736
:101C9000D6FE06464148006941F6FE7108403F49BC
:101CA0000861304670BD70B505460E460424E0025A
:101CB000FFF7C5FE0446042C17D139483749886020
:101CC000384888600846006940F0100008612E809E
:101CD000E002FFF7B4FE0446052C06D02F48006949
:101CE00041F6EF7108402D490861204670BD2DE98D
:101CF000F04304464FF6FF763746B046B14604251A
:101D0000E443E6B2C4F30727C4F307484FEA146973
:101D1000E802FFF794FE0546042D49D120481F49EB
:101D20008860204888600846006940F0100008611B
:101D3000FF2E06D01C4808300680E802FFF77FFE21
:101D40000546042D08D1FF2F06D017480A3007801A
:101D5000E802FFF774FE0546042D0AD1B8F1FF0F23
:101D600007D011480C30A0F80080E802FFF767FEAA
:101D70000546042D0AD1B9F1FF0F07D00A480E30ED
:101D8000A0F80090E802FFF75AFE0546052D0FD097
:101D90000248006941F6EF71084007E00020024068
:101DA00023016745AB89EFCD00F8FF1F6649086145
:101DB0002846BDE8F08330B5054604244FF43020B2
:101DC000FFF73DFE0446042C41D160485E4988601F
:101DD0005F4888600846006940F0200008610846B6
:101DE000006940F0400008614FF43020FFF727FE03
:101DF0000446042C22D15448006941F6DF710840A2
:101E0000514908610846006940F0100008611DB1A1
:101E100000205049088002E0A5204E4908804FF478
:101E20003020FFF70CFE0446052C10D04648006910
:101E300041F6EF7108404449086108E0052C06D0DE
:101E40004148006941F6DF7108403F49086120467A
:101E500030BDF0B505460E46174604243B483A49C6
:101E600088603B488860E002FFF7E9FD0446042CE7
:101E700019D13548006940F010003349086147F036
:101E8000F800304328433349891C0880E002FFF7FB
:101E9000D6FD0446052C06D02B48006941F6EF71AB
:101EA0000840294908612046F0BD2748C0698008DC
:101EB00070472548006A704700202349096801F0EF
:101EC000200109B1012000E00020704729B11E4A1D
:101ED000126902431C4B1A6104E01B4A12698243D7
:101EE000194B1A61704701460020012908D1164A92
:101EF000D26902F001020AB1012008E0002006E0E8
:101F0000114AD2680A400AB1012000E0002070475F
:101F10000D49C860704704200B49C96801F00101F0
:101F200009B101200EE00849C96801F0040109B1B6
:101F3000022007E00449C96801F0100109B103203B
:101F400000E00420704700000020024023016745A4
:101F5000AB89EFCD00F8FF1F4FF0E021096921F0B8
:101F600004014FF0E0221161C21700EB5272C2F37C
:101F7000C702234B1A701946097801EB4102C2EBE4
:101F8000C1114FF6FF7202EAC1011E4A118070476B
:101F900001461C4A12884A434FF0E0235A6100224E
:101FA0009A6101221A6100BF4FF0E022106900F02F
:101FB00001021AB100F48032002AF5D000224FF05D
:101FC000E0231A619A61704701460D4A12784A432C
:101FD0004FF0E0235A6100229A6101221A6100BF8A
:101FE0004FF0E022106900F001021AB100F48032D3
:101FF000002AF5D000224FF0E0231A619A61704761
:10200000640000206600002010B504462046FEF75C
:1020100051FB10BD10B53820FEF73AFB10BD10B5CE
:102020000020FEF735FB10BD10B5FEF7D7FA4FF4D0
:102030000040FE49086010BD10B54FF40040FB4958
:102040000860FF20FFF7E0FF10BD10B5002400BFBF
:10205000FF20FFF7D9FFFF2801D1002010BD641C2D
:102060006FF07F408442F3D30120F7E710B54FF4BF
:102070000040EE49091D0860FFF7E7FF08B900209E
:1020800010BDFFF7D9FF0120FAE770B505464FF6FE
:10209000FF7401E0601E84B2FF20FFF7B5FFA84285
:1020A00001D0002CF6D10CB9FF2070BD0020FCE758
:1020B00070B504460D46FE20FFF7E7FF08B101208A
:1020C00070BD04E0FF20FEF7F5FA2070641C2800C4
:1020D000A5F101018DB2F5D1FF20FFF795FFFF209B
:1020E000FFF792FF0020EBE770B506460D46FFF7BD
:1020F000ACFF08B1012070BD2846FFF785FFFD2D1C
:1021000019D0002404E0305DFEF7D4FA601C84B2DC
:10211000B4F5007FF7DBFF20FFF776FFFF20FFF726
:1021200073FFFF20FFF770FF044604F01F0005282F
:1021300001D00220DFE70020DDE72DE9F041054670
:102140000C4617464FF00008FFF776FFFFF78EFFAB
:1021500010B1FF20BDE8F08145F04000FFF754FFCB
:10216000200EFFF751FFC4F30740FFF74DFFC4F304
:102170000720FFF749FFE0B2FFF746FF3846FFF7B9
:1021800043FF0C2D02D1FF20FFF73EFF4FF01F0849
:1021900000BFFF20FFF738FF064606F0800030B191
:1021A0005FEA0800A8F1010101F0FF08F1D1304613
:1021B000D0E770B50546012200210A20FFF7BDFFD8
:1021C000044624B910212846FFF772FF0446FFF7A2
:1021D00033FF0CB1012070BD0020FCE770B505464F
:1021E000012200210920FFF7A8FF044624B910218D
:1021F0002846FFF75DFF0446FFF71EFF0CB10120E4
:1022000070BD0020FCE77FB56846FFF7E7FF10B11F
:10221000002004B070BD9DF8000000F0C000402810
:1022200009D19DF809009DF8081000EB0120401C21
:1022300084B2A50220E09DF8050000F00F009DF893
:102240000A1000EBD1109DF8091001F0030100EB1A
:102250004100861C9DF8080080119DF8071000EBD6
:1022600081009DF8061001F0030100EB8120441C61
:10227000A6F1090004FA00F52846CAE7F8B5FEF70A
:10228000ADF9FFF7C7FE002504E0FF20FFF7BCFE15
:10229000681C85B20A2DF8DB142600BF95220021A8
:1022A0000846FFF74AFF0446012C04D03000A6F18F
:1022B00001018EB2F2D100205D490870012C4AD193
:1022C00087224FF4D5710820FFF737FF012847D147
:1022D000002506E0FF20FFF797FE0DF80500681CBB
:1022E00085B2042DF6DB9DF80200012879D19DF816
:1022F0000300AA2875D14FF6FE7600BF0122002107
:102300003720FFF71AFF012291072920FFF715FF59
:10231000044624B13000A6F101018EB2EED1002EA8
:102320005FD0012200213A20FFF707FF002858D193
:10233000002506E0FF20FFF767FE0DF80500681C8A
:1023400085B2042DF6DB9DF8000000F0400018B1C6
:1023500006203749087044E004203549087040E001
:10236000012200213720FFF7E8FE01220021292069
:10237000FFF7E3FE0446012C17DC02202C4908700D
:102380004FF6FE7600BF012200213720FFF7D5FE71
:10239000012200212920FFF7D0FE0446BCB1300005
:1023A000A6F101018EB2EED111E0012020490870A2
:1023B0004FF6FE7600BF012200211046FFF7BDFE5A
:1023C000044624B13000A6F101018EB2F3D12EB142
:1023D000012251021020FFF7B0FE10B10020144975
:1023E0000870FFF729FEFFF71AFE1148007808B1C0
:1023F0000020F8BD0CB12046FBE7AA20F9E72DE943
:10240000F04106460F46154609480078062800D0D8
:102410007F02012D12D1012239461120FFF78DFED6
:1024200004462CBB6902304604E00000100801405D
:1024300068000020FFF73CFE044619E001223946FF
:102440001220FFF77AFE044600BF4FF400713046B9
:10245000FFF72EFE044606F50076681EC0B20500A2
:1024600001D0002CF1D0012200210C20FFF765FEE5
:10247000FFF7E2FD2046BDE8F0812DE9F041064678
:102480000F46154620480078062800D07F02012D0F
:102490000CD1012239461820FFF74FFE04466CBBD1
:1024A000FE213046FFF720FE044627E0164800785C
:1024B000012809D0012200213720FFF73EFE01222A
:1024C00029461720FFF739FE012239461920FFF768
:1024D00034FE044694B900BFFC213046FFF704FEE9
:1024E000044606F50076681EC0B2050001D0002C37
:1024F000F2D0FD210020FFF7F7FD0446FFF79CFD19
:102500002046BDE8F08100006800002070B5034659
:102510000C4603E014F8015B03F8015B1500A2F11F
:102520000102F7D170BD30B5034601E003F8011B8D
:102530001400A2F10102F9D130BDF0B503461C46EA
:102540000D46002000BF1600A2F1010207D014F8CA
:10255000017B15F801CBA7EB0C063000F3D0F0BDE2
:10256000024600E0521C107810B110788842F9D170
:10257000107870472DE9F04104460D46266BAE42B7
:102580002FD0207908B360780123324604F134015A
:1025900002F0DCFC10B10120BDE8F08100202071C8
:1025A000D4E908100844B0420FD9E7780AE0206A5D
:1025B000064460780123324604F1340102F0C6FC7F
:1025C000781EC7B2012FF2DC00BF55B1607801233D
:1025D0002A4604F1340102F099FC08B10120DBE73E
:1025E00025630020D8E770B5044600212046FFF798
:1025F000C1FF0546002D59D1207803284FD16079BD
:1026000000284CD0002020634FF40072002104F118
:102610003400FFF788FF552184F83212AA2184F88C
:102620003312522084F834005221352001556121A3
:1026300036200155412137200155722184F81812A6
:1026400084F81912412184F81A12612184F81B12AE
:10265000217C84F81C12208A010A84F81D1220694A
:10266000010C84F81E122069010E84F81F12217BD0
:1026700084F82012A089010A84F82112E068010C74
:1026800084F82212E068010E84F823126078012396
:1026900004F13401626902F059FC00206071607835
:1026A0000022114602F06EFC00B10125284670BDE3
:1026B0000246891ED069801E884201D800207047DA
:1026C0009378D06A01FB0300F9E72DE9F041054654
:1026D0000C46022C02D3E869A04202D80120BDE8D2
:1026E000F0812878012804D002282CD003285AD160
:1026F0003DE0274607EB5707686A00EB572128465D
:10270000FFF738FF00B14EE0C7F3080105F13400D0
:1027100010F801807F1C686A00EB57212846FFF7FC
:1027200029FF00B13FE0C7F3080105F13400405C28
:1027300048EA002804F0010010B14FEA1810CEE773
:10274000C8F30B00CBE7686A00EB14212846FFF7BB
:1027500011FF00B127E040F2FF1000EA440105F14B
:1027600034000E183078717840EA0120B7E7686AC3
:1027700000EBD4112846FFF7FDFE00B113E040F254
:10278000FF1000EA840105F134000E18F07800060D
:10279000B17840EA0140717840EA0120317808437D
:1027A00020F070409BE700BF4FF0FF3097E72DE926
:1027B000F04705460E461746022E02D3E869B0429E
:1027C00002D84FF002088AE02878012804D00228B5
:1027D00041D003287DD154E0B14609EB5909686A1C
:1027E00000EB59212846FFF7C5FE8046B8F1000FDF
:1027F00000D071E0C9F3080105F134000C1806F0AF
:10280000010020B1F9B2207861F31F1000E03846D2
:10281000207009F1010901202871686A00EB592133
:102820002846FFF7A7FE8046B8F1000F00D053E01E
:10283000C9F3080105F134000C1806F0010010B1CD
:10284000C7F3071005E0207800F0F000C7F303217C
:102850000843207040E0686A00EB16212846FFF725
:1028600089FE8046B8F1000F00D035E040F2FF103D
:1028700000EA460105F134000C182770380A607030
:102880002AE0686A00EBD6112846FFF773FE8046FF
:10289000B8F1000F00D01FE040F2FF1000EA8601FF
:1028A00005F134000C18E0780006A17840EA0140F8
:1028B000617840EA01202178084300F07040074326
:1028C0002770380A6070380CA070380EE07003E092
:1028D000FFE74FF0020800BF00BF0120287140460B
:1028E000BDE8F0872DE9F04104460E46022E02D3E2
:1028F000E069B04201D8022725E000271FE03146F9
:102900002046FFF7E2FE054605B91BE0012D01D187
:10291000022717E0681C08B9012713E0002231469E
:102920002046FFF744FF074607B10BE02069401C33
:1029300020B12069401C2061012060712E46E069B1
:10294000B042DCD800BF3846BDE8F0812DE9F04741
:1029500004468946B9F1000F06D1E76817B1E0696E
:10296000B84211D801270FE049462046FFF7ADFED7
:102970000646022E02D20120BDE8F087E069B0428F
:1029800001D93046F8E74F463D4600BF6D1CE0696F
:10299000A84204D80225BD4201D90020ECE729460F
:1029A0002046FFF792FE064606B909E0701C08B102
:1029B000012E01D13046DFE7BD42E7D10020DBE741
:1029C00000BF6FF0704229462046FFF7F0FE8046B8
:1029D000B8F1000F08D1B9F1000F05D02A464946D9
:1029E0002046FFF7E4FE8046B8F1000F09D1E5600C
:1029F0002069401C68B12069401E2061012060717F
:102A000007E0B8F1010F02D14FF0FF3000E00120E4
:102A100005462846B0E770B503460D46586A021DC4
:102A2000680A1E68B678B0FBF6F400BF02CA09B99E
:102A3000002070BD8C4200D202E0641A121DF5E73E
:102A400000BF10682044F4E72DE9F04104460E462B
:102A5000E680A568012D03D02068C069A84202D88D
:102A60000220BDE8F0812DB920680078032801D14B
:102A70002068856A65B9E56020680089B04201DC9C
:102A80000220EEE72068806A00EB1610206120E04B
:102A900020688078070112E029462068FFF715FEBC
:102AA0000546681C08B90120DBE7022D03D3206826
:102AB000C069A84201D80220D3E7F01B86B2BE420B
:102AC000EADAE56029462068FFF7F2FD00EB161010
:102AD00020612068343006F00F0100EB4110606186
:102AE0000020BEE72DE9F0410446884600BFE0889B
:102AF000401C86B20EB1206910B90420BDE8F081F7
:102B000006F00F0000286FD12069401C2061E068AA
:102B100028B920680089B04266DC0420EEE720680E
:102B20008078401E00EA161000285DD1E168206818
:102B3000FFF7CBFD0546012D01D80220DEE7681C1A
:102B400008B90120DAE72068C069A84246D8B8F180
:102B5000000F01D10420D1E7E1682068FFF7F6FEFD
:102B600005460DB90720C9E7012D01D10220C5E7AF
:102B7000681C08B90120C1E700212068FFF7FAFCB2
:102B800008B10120BAE7216801F134004FF4007266
:102B90000021FFF7C8FC29462068FFF789FD21685E
:102BA0000863002710E001202168087100212068D7
:102BB000FFF7E0FC08B10120A0E72068006B401C93
:102BC00021680863781CC7B220688078B842EADCC4
:102BD0002068006BC01B2168086300BFE5602946C0
:102BE0002068FFF765FD2061E6802068343006F03C
:102BF0000F0100EB4110606100207FE72DE9F041FB
:102C0000044600212046FFF71FFF054615B1284660
:102C1000BDE8F08100BF21692068FFF7ABFC0546E5
:102C200005B116E0666937780FB9042511E0F07A2E
:102C300000F0080030B90B223046A169FFF77DFC97
:102C400000B906E000212046FFF74CFF0546002DA5
:102C5000E1D000BF2846DBE72DE9F041044604251A
:102C60001AE021692068FFF785FC054605B116E0EA
:102C700067693E780EB9042511E0E52E05D000BF46
:102C8000F87A00F0080000B909E000212046FFF7BB
:102C900029FF054605B102E020690028E1D100BF07
:102CA0000DB1002020612846BDE8F0812DE9F041FA
:102CB000044600212046FFF7C7FE0546ADB900BF18
:102CC00021692068FFF756FC054605B10CE06069F4
:102CD0000678E52E00D006B906E001212046FFF770
:102CE00001FF0546002DEBD000BF9DB9216920688A
:102CF000FFF740FC05466DB9676920220021384680
:102D0000FFF711FC0B223846A169FFF7FFFB0120FA
:102D1000216808712846BDE8F08170B50446E18855
:102D20002046FFF791FE05465DB921692068FFF74F
:102D300021FC05462DB9E520616908700120216854
:102D40000871284670BD2DE9F35F0198D0F8008026
:102D500001E008F1010898F800002F28F9D098F850
:102D600000005C28F5D0009885690B2220212846B8
:102D7000FFF7D9FB00263746B1464FF0080B18F88D
:102D800009002E2825D100BF484609F1010918F88D
:102D900000402E2C02D1B9F1030F00D303E03846D6
:102DA0007F1C2C54F0E700BF2F2C06D05C2C04D0E5
:102DB000202C02DD0620BDE8FC9F08EB09010198EC
:102DC0000160202C01DC242000E02020E87200209B
:102DD000F1E700BF484609F1010918F80040202C2E
:102DE00003DD2F2C01D05C2C00D152E02E2C01D021
:102DF0005F450CD3BBF1080F01D12E2C01D006206A
:102E0000D9E708274FF00B0BB006060EE2E7802C3F
:102E100001DB46F00306812C20DBFE2C1EDC48463D
:102E200009F1010918F800A0BAF1400F02DBBAF16C
:102E30007E0F05DDBAF1800F06DBBAF1FE0F03DC71
:102E4000ABF10100B84201D80620B4E738467F1C38
:102E50002C5438467F1C05F800A019E02146FDA03F
:102E6000FFF77EFB08B10620A5E7412C04DB5A2CB6
:102E700002DC46F0020608E0612C06DB7A2C04DC5A
:102E800046F00106A4F12000C4B238467F1C2C5441
:102E9000A0E700BF08EB090101980160202C01DCCC
:102EA000042000E0002004460FB9062083E72878BC
:102EB000E52801D105202870BBF1080F01D1B0062B
:102EC000060E06F00300012801D144F0100406F0BC
:102ED0000C00042801D144F00804EC7200206AE7D9
:102EE000F0B505460B4603F109022F69002F40D0CB
:102EF0006869067B00210AE0445C202C00D108E0D0
:102F0000052C00D1E52400BF02F8014B491C08291B
:102F1000F2D300BF077A202F0FD02E2702F8017BB3
:102F2000082107E0445C202C00D105E000BF02F836
:102F3000014B491C0B29F5D300BFC77A1F72C77F0D
:102F40004FEA076C877F4CEA074C477F4CEA07271C
:102F500090F81CC047EA0C071F6090F818C0477E25
:102F60004CEA07279F8090F816C0C77D4CEA0727D8
:102F7000DF8000271770F0BD2DE9F341044601986A
:102F800000782F2803D0019800785C2805D101989B
:102F9000401C01900020A06002E020688069A060D1
:102FA00001980078202807D200212046FFF74CFD29
:102FB00007460020606139E000BF01A92046FFF705
:102FC000C2FE074607B130E02046FFF717FE07466E
:102FD000A069C67A97B1042F00D026E006F0200041
:102FE00038B10020A0606061002706F0040020B91D
:102FF000E3E706F0040000B9052716E006F0040038
:1030000000B112E06569E87A00F0100008B9052700
:103010000BE0A97EE87E41EA00212A7D687D42EA34
:10302000002041EA0040A060C7E700BF3846BDE885
:10303000FC8170B504460D46607801232A4604F1F0
:10304000340101F063FF08B1032070BD94F832121F
:1030500094F8330241EA00204AF65521884201D013
:103060000220F2E794F86D00010694F86C0041EA42
:10307000004194F86B0041EA002094F86A1008437C
:1030800020F07F407749884201D10020DDE794F8A5
:103090008900010694F8880041EA004194F887000D
:1030A00041EA002094F88610084320F07F406D49E3
:1030B000884201D10020C8E70120C6E72DE9F74F7B
:1030C00088B008980068019001980078303807901F
:1030D000079809280AD8019840783A2806D101981B
:1030E000801C019008990198086002E05E48007811
:1030F00007900798022803D30B200BB0BDE8F08F90
:103100005A49079851F82040099804600CB90C20DE
:10311000F3E7207878B1607801F0F5FE804608F09A
:10312000010040B90A9820B108F0040008B10A2053
:10313000E3E70020E1E700202070079860706078E6
:1031400001F0CCFE804608F0010008B10320D4E76E
:103150000A9820B108F0040008B10A20CDE74FF02A
:10316000000B59462046FFF764FF054600BF012DBE
:1031700021D14FF0000ABAF1000F03D0AAF10100EB
:1031800000F0FF0A4FF4DF7000EB0A1104F1340085
:103190000F18387978B1F87A0106B87A41EA004117
:1031A000787A41EA0020397A40EA010B59462046F4
:1031B000FFF73FFF0546032D01D101209DE70DB12B
:1031C0000D209AE73F20015D94F8400041EA00207D
:1031D000B0F5007F01D00D208FE74A20015D94F803
:1031E0004B0041EA0029B9F1000F0ED194F85B00C1
:1031F000010694F85A0041EA004194F8590041EA66
:10320000002094F8581040EA0109C4F820904420A6
:10321000065DE670012E03D0022E01D00D206CE772
:1032200009FB06F94120005D0646A07016B1701E2C
:10323000304008B10D2060E74520015D94F846005C
:1032400041EA00202081207A00F00F0080B10D209B
:1032500053E70000222A2B2C3A3B3C3D3E3F5B5D6E
:103260007C7F000046415400760000206C00002066
:103270004720015D94F8480041EA00200690069836
:1032800070B994F85700010694F8560041EA0041DD
:1032900094F8550041EA002094F854100843069031
:1032A0004220015D94F8430041EA00200290029818
:1032B00008B90D2021E702984844218900EB11103C
:1032C0000590DDE90501814201D20D2015E7DDE918
:1032D0000510401AA178B0FBF1F00490049808B9E9
:1032E0000D200AE7012540F6F6710498884200D3C4
:1032F00002254FF6F6710498884200D303250498FE
:10330000801CE06105985844E0620298584460626D
:10331000032D16D1208908B10D20EEE694F8630044
:10332000010694F8620041EA004194F8610041EA24
:10333000002094F860100843A062E06980000390C8
:1033400014E0208908B90D20D7E6606A4844A062DD
:10335000022D02D1E069400007E0207F00F001006B
:10336000E16901EB410100EB51000390216A0398F0
:1033700000F2FF10B1EB502F01D20D20BDE64FF04F
:10338000FF3020610020E060032D5CD1607194F873
:10339000641094F8650041EA002058446061607848
:1033A000012304F13401626901F0B0FDF0BB94F82F
:1033B000321294F8330241EA00204AF6552188423D
:1033C00041D13720005D01063620005D41EA004111
:1033D0003520005D41EA002094F834100843FE498E
:1033E000884230D194F81B02010694F81A0241EA8F
:1033F000004194F8190241EA002094F81812084399
:10340000F64988421FD194F82302010694F822025B
:1034100041EA004194F8210241EA002094F8201288
:103420000843E06094F81F02010600E00BE094F806
:103430001E0241EA004194F81D0241EA002094F87E
:103440001C12084320612570E5480088401C80B2AA
:10345000E3490880E080002020632071A06100BF64
:103460004BE670B504460D4624B1207810B1E088D3
:10347000A84201D0092070BD607801F044FD00F041
:10348000010008B10320F6E70020F4E70246022A13
:1034900001DB0B207047D34850F822300BB10020DD
:1034A000187009B100200870CE4840F822100020A2
:1034B000F0E72DE9F7438AB005461646002028605C
:1034C00006F01F0626F0010203A90BA8FFF7F6FD80
:1034D0000746CDF824D027B903A80B99FFF74CFD78
:1034E0000746089C0FB904B9062706F01C000028FF
:1034F00058D04FB1042F03D103A8FFF7D7FB0746DD
:1035000046F00806089C09E0E07A00F0110008B1D6
:10351000072703E006F0040000B10827002F40D180
:1035200006F0080000283CD001F05FFD804684F8DA
:103530000E804FEA1821E1734FEA184121744FEAD7
:10354000186161740020E072207700216177A17713
:10355000E177A17EE07E41EA0021227D607D42EAA2
:10356000002041EA00490020A0760021E176207584
:103570006175012003990871B9F1000F11D003980A
:10358000D0F8308049460398FFF7ACF9074647B9B1
:10359000A9F101000399C86041460398FEF7EAFFCC
:1035A00007460EE06FB9E07A00F0100008B104277A
:1035B00007E006F0020020B1E07A00F0010000B15F
:1035C000072747B906F0080008B146F0200603981F
:1035D000006BE8612C62FFB9AE71A17EE07E41EA2A
:1035E0000021227D607D42EA002041EA00402861FE
:1035F000E07F0106A07F41EA0041607F41EA0020B0
:10360000217F0843E8600020A860A86168620398F1
:1036100028600398C088A88038460DB0BDE8F083C4
:103620002DE9FF4F83B0044615469A46DDF810B0E9
:103630000020CAF80000A1882068FFF712FF02905E
:10364000029818B1029807B0BDE8F08FA07900F099
:10365000800008B10220F6E7A07900F0010008B967
:103660000720F0E7D4E90210401A00900098854244
:1036700000D9009DC6E02089C0F30800002870D161
:1036800020688078401EA16800EA512000F0FF0900
:10369000B9F1000F25D1A06810B9206901900CE0A4
:1036A000606A28B12046A168FFF7B5F9019004E0EF
:1036B00061692068FFF709F801900198022805D296
:1036C000A07940F08000A0710220BCE70198401C66
:1036D00028B9A07940F08000A0710120B3E70198DB
:1036E000606161692068FEF7E3FF06462EB9A079A4
:1036F00040F08000A0710220A5E74E444FEA552813
:10370000B8F1000F2ED009EB0800216889788842B3
:1037100003D920688078A0EB090808F0FF0321682E
:1037200048783246594601F0F1FB28B1A07940F0C3
:103730008000A071012086E7A07900F0400068B108
:10374000A069801B404509D2A169891B0BEB412070
:103750004FF4007204F12801FEF7D8FE4FEA482723
:1037600046E029E0A069B04225D0A07900F04000F1
:1037700090B121684878012304F12801A26901F081
:10378000E5FB28B1A07940F08000A07101205AE744
:10379000A07920F04000A0712168487801233246CA
:1037A00004F1280101F0B2FB28B1A07940F08000BB
:1037B000A071012047E7A6612089C0F30800C0F589
:1037C0000077AF4200D92F462089C0F3080204F1E8
:1037D000280011183A4607E0525261417272416165
:1037E000740000206C0000205846FEF78FFE00BFDA
:1037F000BB44A0683844A060DAF800003844CAF836
:103800000000ED1B002D7FF436AF00201BE72DE9F3
:10381000FF4F83B0044615469B4604980190002054
:10382000CBF80000A1882068FFF71BFE02900298E9
:1038300018B1029807B0BDE8F08FA07900F08000C1
:1038400008B10220F6E7A07900F0020008B90720CD
:10385000F0E7E0682844E168884200D20025D6E01D
:103860002089C0F3080000287ED120688078401E9F
:10387000A16800EA512000F0FF0ABAF1000F32D12E
:10388000A06858B9D4F81080B8F1000F13D1002106
:103890002068FFF75BF8804620610CE0606A28B181
:1038A0002046A168FFF7B7F8804604E06169206808
:1038B000FFF74CF88046B8F1000F00D1AAE0B8F14C
:1038C000010F05D1A07940F08000A0710220B1E77E
:1038D00008F1010028B9A07940F08000A071012012
:1038E000A8E7C4F81480A07900F0400090B12168E6
:1038F0004878012304F12801A26901F027FB28B1CF
:10390000A07940F08000A071012093E7A07920F019
:103910004000A07161692068FEF7CAFE06462EB914
:10392000A07940F08000A071022083E756444FEA5E
:103930005529B9F1000F30D00AEB090021688978C8
:10394000884203D920688078A0EB0A0909F0FF03B8
:10395000216848783246019901F0F8FA38B1A07927
:1039600040F08000A07100E02EE0012062E7A06935
:10397000801B48450ED2A069801B019A02EB4021B2
:103980004FF4007204F12800FEF7C0FDA07920F08A
:103990004000A0714FEA49272DE0A069B04212D043
:1039A000D4E9020188420ED22168487801233246C8
:1039B00004F1280101F0AAFA28B1A07940F08000B2
:1039C000A071012036E7A6612089C0F30800C0F588
:1039D0000077AF4200D92F462189C1F3080204F1D4
:1039E000280150183A460199FEF790FDA07940F061
:1039F0004000A07100BF019838440190A06838448D
:103A0000A060DBF800003844CBF80000ED1B002D6F
:103A10007FF426AF00BFD4E90201884201D9A06833
:103A2000E060A07940F02000A071002002E72DE9BD
:103A3000F0410446A1882068FFF713FD0746002FD8
:103A40004FD1A07900F0200000284AD0A07900F0E2
:103A5000400078B121684878012304F12801A26967
:103A600001F074FA10B10120BDE8F081A07920F0D6
:103A70004000A071E1692068FEF77CFD0746002F39
:103A80002FD1256AE87A40F02000E872207B287761
:103A9000A089010A6977E068010CA977E068010E46
:103AA000E977207CA876208A010AE9762069000C53
:103AB00028752069010E697501F097FA0646AE7502
:103AC000310AE975310C2976310E6976A07920F03A
:103AD0002000A0710120216808712068FEF783FD95
:103AE00007463846C0E770B504462046FFF79FFFFB
:103AF00005460DB900202060284670BD0146022908
:103B000001DB0B207047FE4801700020FAE711B579
:103B10008BB0002204A90BA8FFF7D0FA04462CBBF7
:103B200001A80A9004A80B99FFF726FA0446D4B915
:103B3000099818B904990698886114E00998C07A20
:103B400000F0100070B10998817EC07E41EA00212A
:103B50000998027D407D42EA002041EA0040049934
:103B6000886100E00524042C00D1052420460CB017
:103B700010BD2DE9FE4F04460D46A1882068FFF7D1
:103B800070FC0290029810B10298BDE8FE8FA079F7
:103B900000F0800008B10220F7E7606A00287DD0BD
:103BA000681C002841D1D4F8248058F804AB4FF0A9
:103BB000020926696EB300BF00964FF0000B09F1B1
:103BC000020900BF01960BF1010B31462068FEF798
:103BD0007CFD0646012E05D8A07940F08000A0713A
:103BE0000220D2E7701C28B9A07940F08000A071B3
:103BF0000120CAE70198401C8642E3D0D14504D891
:103C000048F804BB009848F8040B2068C069B0422B
:103C1000D2D8606AC0F80090D14503D80020C8F817
:103C2000000050E0112002904DE0E068A84200D270
:103C3000E568A560002D46D0691E2046FEF7EBFE24
:103C4000606161692068FEF733FD07462FB9A079EE
:103C500040F08000A071022097E720688078401E25
:103C6000691E00EA512007442089C0F3080050B3C0
:103C7000A069B84227D0A07900F0400098B121682F
:103C80004878012304F12801A26901F05FF930B1FD
:103C9000A07940F08000A071012076E714E0A079BF
:103CA00020F04000A0712168487801233A4604F1D1
:103CB000280101F02BF928B1A07940F08000A07113
:103CC000012062E7A761C1E0E068A84204D2A079C0
:103CD00000F0020000B9E568D4F808904FF0000841
:103CE000C4F80880002D77D0206880784702B9F1A9
:103CF000000F11D0681EB0FBF7F1A9F10100B0FB75
:103D0000F7F0814208D3A9F10100791E8843A06031
:103D1000A0682D1A666918E02669AEB900212068EE
:103D2000FEF714FE0646012E05D1A07940F0800072
:103D3000A071022029E7701C28B9A07940F080000A
:103D4000A071012021E726616661EEB329E0A07928
:103D500000F0020038B131462068FEF7F7FD064654
:103D600036B93D461FE031462068FEF7AEFC0646F8
:103D7000701C28B9A07940F08000A071012004E7F0
:103D8000012E03D92068C069B04205D8A07940F05F
:103D90008000A0710220F8E66661A0683844A06047
:103DA000ED1BBD42D3D800BFA0682844A060C5F376
:103DB000080048B131462068FEF77AFC8046B8F129
:103DC000000F07D1A07900E006E040F08000A0716C
:103DD0000220DAE608EB55282089C0F3080050B32A
:103DE000A069404527D0A07900F0400090B121683B
:103DF0004878012304F12801A26901F0A7F828B14D
:103E0000A07940F08000A0710120BEE6A07920F0EA
:103E10004000A071216848780123424604F128013E
:103E200001F074F828B1A07940F08000A071012061
:103E3000ABE6C4F81880D4E90201884205D9A0682D
:103E4000E060A07940F02000A07100BF02989CE6DD
:103E500033B583B004460022214604A8FFF72EF9AB
:103E600005464DBBC4F818D020460499FFF784F8E6
:103E70000546F5B9606998B16069C07A00F0100034
:103E800068B16069817EC07E41EA00216069027D7F
:103E9000407D42EA002041EA0040A06000E00525A4
:103EA0003DB92068C088A08000212046FEF7CCFDE7
:103EB0000546042D00D10525284605B030BDFEB5C8
:103EC00004460E46A1882068FFF7CBFA05461DBBC5
:103ED0002EB900212046FEF7B7FD05461CE0C4F8C8
:103EE00018D02046FEF7B8FE0546042D02D100206A
:103EF0002061002585B931462046FEF7F1FF01E03B
:103F00007600002000212046FEF7ECFD0546042D3A
:103F100002D10020206100252846FEBD33B58BB0BC
:103F20000D46002204A90BA8FFF7C8F804467CB987
:103F300001A80A9004A80B99FFF71EF804463CB9A3
:103F4000099820B1294604A8FEF7CAFF00E006241C
:103F500020460DB030BD2DE9F74F82B08B46144698
:103F60000022214602A8FFF7A9F801900198002835
:103F700077D120680169C069801E814204D8206819
:103F80000069CBF800006CE0206890F800A00026E3
:103F9000BAF1010F1DD1022700BF39462068FEF794
:103FA00094FB804608F1010010B9012001900FE058
:103FB000B8F1010F02D10220019009E0B8F1000F21
:103FC00000D1761C781C07462168C9698842E4D371
:103FD0003DE02068C7692068406A00904FF0000902
:103FE000002500BFB9F1000F0FD1009A531C1146F4
:103FF00000932068FEF7BEFA0190019800B125E019
:10400000206800F134054FF40079BAF1020F09D1AC
:104010002878697840EA012000B9761CAD1CA9F126
:10402000020910E0E8780006A97840EA01406978C2
:1040300040EA01202978084320F0704000B9761C3E
:104040002D1DA9F10409781E0700CBD100BF2068FF
:104050000661BAF1030F02D1012021684871CBF843
:104060000060019805B0BDE8F08F70B50446A188E6
:104070002068FFF7F6F9054655B9A07900F08000F1
:1040800008B1022504E0A07900F0020000B907257C
:10409000002D36D1D4E9021088422DD9A068E06005
:1040A000A07940F02000A071A06838B9216920688B
:1040B000FEF718FC0546002020611DE061692068BC
:1040C000FEF703FB06460025701C00B90125012EF2
:1040D00000D1022585B92068C069B0420CD96FF0C3
:1040E000704261692068FEF762FB054625B93146DA
:1040F0002068FEF7F7FB05461DB1A07940F080006F
:10410000A071284670BD71B591B001220AA911A80D
:10411000FEF7D4FF0446002C55D1CDF840D00AA8B4
:104120001199FEF729FF04462CB91098C07A00F0C7
:10413000200000B10624002C45D10F9D0DB90624A6
:1041400004E0E87A00F0010000B10724A97EE87ECF
:1041500041EA00212A7D687D42EA002041EA0046CA
:1041600004BBE87A00F01000E0B1022E01D2022474
:1041700018E01C220AA903A8FEF7C8F90596022137
:1041800003A8FEF761FC044664B903A8FEF764FDCA
:1041900004461CB103988069B04200D10724042C66
:1041A00000D100247CB90AA8FEF7B7FD044654B933
:1041B00026B131460A98FEF795FB04461CB90A98C9
:1041C000FEF711FA0446204612B070BD2DE9F14702
:1041D0008BB000F00AFF0746012204A90BA8FEF7E6
:1041E0006DFF0646002E73D101A80A9004A80B9912
:1041F000FEF7C2FE064606B90826042E05D10A9827
:10420000C07A00F0200000B10626042EEBD1002178
:104210000498FEF79BFB0546002605B90726012DED
:1042200000D10226681C00B9012626B90021049895
:10423000FEF7A0F90646002E68D129460498FEF73D
:1042400037FA8246049800F134044FF400720021DA
:104250002046FEF768F90B2220212046FEF763F97D
:104260002E2020701020E072A775390AE175390CF4
:104270002176390E6176A576290AE176280C20751B
:10428000290E61752022214604F12000FEF73EF937
:104290002E2084F82100DDF8188004980078032887
:1042A00004D10498806A404500D1B04684F83A8031
:1042B0004FEA182184F83B10C8F307413420015518
:1042C0004FEA186184F83510049890F8029019E0CC
:1042D0003FE00498C0F830A00AF1010A01200499D7
:1042E000087100210498FEF745F9064606B10CE076
:1042F0004FF4007200212046FEF715F9A9F10100E4
:1043000000F0FF09B9F1000FE3D100BF1EB904A806
:10431000FEF7CCFC064626B129460498FEF7E2FAE1
:1043200017E0099C1020E072A775390AE175390C75
:104330002176390E6176A576290AE176280C20755A
:10434000290E61750120049908710498FEF74BF954
:10435000064630460CB0BDE8F087F7B58AB00F4688
:104360001446012203A90AA8FEF7A8FE05460DBBC4
:10437000CDF824D003A80A99FEF7FEFD05462DB915
:104380000998C07A00F0200000B1062595B9089E72
:104390000EB906250EE004F0270407EA0400F17ABE
:1043A000A1430843F0720120039908710398FEF7B6
:1043B0001AF9054628460DB0F0BD73B58AB00D4612
:1043C000012203A90AA8FEF779FE06461EBBCDF816
:1043D00024D003A80A99FEF7CFFD06462EB9099806
:1043E000C07A00F0200000B10626A6B9089C0CB9DE
:1043F000062610E0A879A075E8880112E1752879F1
:104400002076A8880112617601200399087103982B
:10441000FEF7E9F8064630460CB070BDF3B597B02C
:104420000F46012210A917A8FEF748FE0546002DE9
:1044300014D110980990CDF858D010A81799FEF70C
:104440009BFD05462DB91698C07A00F0200000B1FA
:104450000625002D76D1159808B9042572E0159827
:1044600000F10B01152203A8FEF750F81C2210A939
:1044700009A8FEF74BF8394609A8FEF77DFD054669
:1044800005B90825042D5DD109A8FEF70FFC0546E6
:10449000002D57D10E9C13220DF10E0104F10D00D9
:1044A000FEF734F89DF80C0040F02000E072012087
:1044B000109908710B991298884239D0E07A00F06F
:1044C0001000002834D0A37EE27E43EA022394F851
:1044D00014C0627D4CEA022243EA02410998FEF7C9
:1044E000E7F806460EB9022522E031460998FEF7A4
:1044F00041F80546099800F15404CDB960782E289A
:1045000016D109980078032806D109990B98896A71
:10451000884201D1002000E00B980646A676310AB9
:10452000E176300C2075310E617501200999087112
:1045300045B910A8FEF7F1FB05461DB91098FEF726
:1045400052F80546284619B0F0BD2DE9F74F8EB058
:1045500091460E98022803DB0B2011B0BDE8F08FC6
:104560000F98012801DD1320F7E7A9F1010000EA07
:10457000090008B11320F0E7FE490E9851F820B069
:10458000BBF1000F01D10C20E7E700208BF8000001
:104590000E980B9000200A900B9800F09FFC009062
:1045A000009800F0010008B10320D6E7009800F061
:1045B000040008B10A20D0E700BF03AA01210B982C
:1045C00000F0E0FC10B90398802801D20120C4E774
:1045D0000F9808B1002000E03F2080460398A0EB30
:1045E00008000390B9F1000F13D14FF4FA6103985A
:1045F000B0FBF1F009904FF0000A01E00AF1010A66
:10460000DD4830F81A1009988142F7D8DB4830F8B5
:104610001A904FEA5929B9F1000F01D14FF0010961
:10462000B9F1800F01D94FF080090398B0FBF9F779
:10463000012540F6F670874200D302254FF6F6704A
:10464000874200D30325032D0AD1082000EB870001
:1046500000F2FF10460A202002900020019011E095
:10466000012D05D107EB4700401C4008C01C01E0AC
:104670007800001D064606F2FF10460A012002904F
:1046800020200190029840440690069830440590FE
:10469000019905980844049004984844A0EB080048
:1046A0000399884201D90E2057E708AA03210B98E5
:1046B00000F068FC28B9089818B10898B0F5004FC8
:1046C00001D901200890089904980844401E491E09
:1046D0008843089008990498081A0890032D08D177
:1046E0000899029808440290089906980844069090
:1046F00001E008980644DDE90201081A811B0198CF
:10470000081AB0FBF9F7022D03D140F6F670874284
:1047100005D3032D05D14FF6F670874201D20E2046
:104720001BE7012D02D0022D0CD102E001200C90DC
:104730000BE00398B0F5803F01D2042000E0062092
:104740000C9002E00C200C9000BF00BF00BF0F983F
:1047500010B1F0200D9044E04FF4007200210BF1F5
:104760003400FDF7E0FE0BF5F97401206070A070D5
:104770000020E0700C982071FE2060710398404486
:104780003F21B0FBF1F0FF21B0FBF1F008903F2199
:10479000089841EA9000A0710898E0713F202072CB
:1047A00000216172A172E172039820730398010ADB
:1047B00061730398010CA1730398010EE1735521F5
:1047C0008BF83212AA218BF83312012300220BF14D
:1047D00034010B9800F0BAFB08B10120BDE6F820C7
:1047E0000D900BF134044FF4007200212046FDF7C8
:1047F0009AFE0B2262A12046FDF788FE4FF4007A54
:1048000084F80BA04FEA1A21217384F80D900298C6
:10481000A0730298010AE17301202074032D01D1D5
:10482000002001E04FF40070824684F811A04FEAA6
:104830001A21A1740398B0F5803F05D20398E07463
:104840000398010A217510E0039884F8200003986A
:10485000C0F30721212001550398C0F3074122200E
:1048600001550398010E232001550D9860753F20D6
:10487000207600216176FF20A076E17684F81C8006
:104880004FEA182161774FEA1841A1774FEA186182
:10489000E17700F0AAFB0890032D3ED1089884F838
:1048A00043000898C0F30721442001550898C0F33D
:1048B0000741452001550898010E4620015584F80E
:1048C0002460C6F3072125200155C6F307412620A1
:1048D0000155310E27200155022084F82C000021BB
:1048E0002D2001552E2001552F200155012084F83F
:1048F000300031200155062084F832003320015564
:10490000802084F84000292084F8420013221FA14F
:1049100004F14700FDF7FAFD1FE0089884F827002E
:104920000898C0F30721282001550898C0F30741D3
:10493000292001550898010E2A200155A675310A33
:10494000E175802084F82400292084F826001322B1
:1049500013A104F12B00FDF7D9FD552084F8FE01C9
:10496000AA2140F2FF1001550123424621460B982F
:1049700020E000006C000020E6570008FC5700080B
:10498000EBFE904D53444F53352E30004E4F204E8A
:10499000414D452020202046415433322020200024
:1049A0004E4F204E414D452020202046415420208E
:1049B0002020200000F0CAFA08B10120CDE5032D27
:1049C00006D1012308F1060221460B9800F0BEFA39
:1049D000069807904FF0000A61E04FF40072002142
:1049E0002046FDF7A0FD0D980890032D14D0012D51
:1049F00001D1FE4801E06FF0FF00089908430890DC
:104A0000089820700898000A60700898000CA07040
:104A10000898000EE07019E0089860F0FF00089018
:104A2000089820700898000A60700898000CA07020
:104A30000898000EE070FF202071FF216171A171C4
:104A4000E17120726172A1720F21E1720798411C1D
:104A500002460123079121460B9800F077FA08B12E
:104A600001207AE54FF4007200212046FDF75BFD3E
:104A7000012008900EE00798411C0246012307918F
:104A800021460B9800F062FA08B1012065E508980C
:104A9000401C08900898B042EDD30AF1010ABAF11F
:104AA000000F9AD0032D01D1484600E001988246BC
:104AB00000BF0798411C02460123079121460B982D
:104AC00000F044FA08B1012047E5AAF101005FEACD
:104AD000000AEED1032D46D1522020706070612073
:104AE000A0704120E070722084F8E401722140F24D
:104AF000E51001554121401C01556121401C015523
:104B0000781E84F8E801C0F3072140F2E91001554E
:104B1000781EC0F307414FF4F5700155781E010E61
:104B200040F2EB100155022084F8EC01002140F224
:104B3000ED100155401C0155401C0155552084F8CD
:104B4000FE01AA2140F2FF100155012308F10102E4
:104B500021460B9800F0FAF9012308F107022146DB
:104B60000B9800F0F3F9002211460B9800F00AFAB6
:104B700008B10120F1E40020EFE42DE9FC470746ED
:104B80008846914600243E4611E06B46012201A969
:104B90004846FEF745FD0098012800D00BE09DF83F
:104BA000045006F8015B641C0A2D00D103E0A8F153
:104BB0000100A042E9DC00BF0020307014B138468B
:104BC000BDE8FC870020FBE77CB504460D468DF868
:104BD0000040012601AB324669462846FEF717FE23
:104BE0000198B04200D17CBD4FF0FF30FBE770B5BB
:104BF00004460E4600250AE020783146FFF7E4FF20
:104C0000401C10B94FF0FF3070BD641C6D1C207843
:104C10000028F1D12846F7E70FB42DE9F04F89B00D
:104C200014A8089000208146019044E1139810F8E0
:104C3000014B139004B943E1252C0AD02046129968
:104C4000FFF7C2FF814609F1010008B14FF00109E9
:104C50002EE1002006468246139810F8014B13906F
:104C6000302C05D10126139810F8014B139006E063
:104C70002D2C04D10226139810F8014B139009E053
:104C80000AEB8A0004EB4000A0F1300A139810F8F8
:104C9000014B1390302C01DB392CF1DD6C2C01D051
:104CA0004C2C05D146F00406139810F8014B1390D4
:104CB00004B905E12546612D04DB7A2D02DCA5F15E
:104CC0002000C5B24F2D59D006DC422D53D0432DC4
:104CD00047D0442D5CD154E0532D04D0552D51D0F4
:104CE000582D55D151E00898006802900898001D91
:104CF00008904FF0000801E008F10108029810F850
:104D000008000028F8D1009006F0020068B907E01A
:104D100020201299FFF758FF81460099084400901F
:104D2000404608F101085045F2D312990298FFF766
:104D30005EFF814600990844009007E02020129908
:104D4000FFF742FF8146009908440090404608F171
:104D500001085045F2D309F1010008B1DDF80090D7
:104D6000A6E0089911F8042BD0B208911299FFF728
:104D70002BFF81469CE0022007900FE0082007905F
:104D80000CE000BF0A20079008E01020079005E023
:104D900020461299FFF718FF814689E000BF06F010
:104DA000040028B1089800680899091D08910CE0D2
:104DB000442D05D1089800680899091D089104E060
:104DC000089800680899091D08918346442D06D16A
:104DD0000BF0004018B1CBF1000B46F0080600279D
:104DE00000BF0798BBFBF0F102E0000000FFFF00EE
:104DF00000FB11B0C5B20798BBFBF0FB092D06DD27
:104E0000782C01D1272000E007202844C5B205F105
:104E10003000C2B238467F1C03A90A54BBF1000F10
:104E200001D0102FDDD306F0080020B12D22384626
:104E30007F1C03A90A54B84606F0010008B13020CF
:104E400000E0202005460020019007E02846129946
:104E5000FFF7BAFE814601990844019006F002006E
:104E600020B9404608F101085045EFD300BF791E34
:104E70000F4603AA505C1299FFF7A6FE81460199DE
:104E800008440190002FF2D107E020201299FFF78B
:104E90009BFE8146019908440190404608F10108B3
:104EA0005045F2D309F1010008B1DDF8049000BFCC
:104EB00001984844019009F1010000287FF4B6AE42
:104EC00000BF0020089009F1010028B9484609B048
:104ED000BDE8F00F5DF814FB0198F8E770B50546E2
:104EE0005DB9FDF7CBF9044634B1FDF793F8FF2027
:104EF000FDF78AF8FDF793F800BF00BF0CB1012061
:104F000070BD0020FCE70146002070472DE9F0410C
:104F100006460F4690461D4615B90420BDE8F081AF
:104F200076B92A4641463846FDF769FA044634B157
:104F3000FDF770F8FF20FDF767F8FDF770F800BF88
:104F400000BF0CB90020E9E70120E7E72DE9F041B7
:104F500005460E4617461C464FF0000814B90420BB
:104F6000BDE8F08135B9224639463046FDF785FA6D
:104F7000804600BF00BFB8F1000F01D10020EFE76D
:104F80000120EDE72DE9F04106460F46154646BBE8
:104F900037B1012F1DD0022F12D0032F1ED114E0E4
:104FA0004FF4004012490860FDF74FF808B900249B
:104FB00000E001244FF400400D49091F08600FE094
:104FC0004FF40070288000240AE008202880002484
:104FD00006E0FDF718F92860002401E0042400BF72
:104FE00000E001242046BDE8F08100207047000069
:104FF0001408014089488A4948608A4848607047D7
:105000008748006940F080008549086170478448FE
:10501000C16801F0010008B10120704701F00400EF
:1050200008B10220F9E701F0100008B10320F4E70D
:105030000020F2E770B5044600BFFFF7E8FF054621
:10504000012D00D006E00120FCF7BEFF601E84B2F7
:10505000002CF2D100BF04B9FF25284670BD70B501
:105060000546002445F6FF70FFF7E4FF0446C4B987
:105070006B48006940F002006949086108464561D3
:10508000006940F04000086145F6FF70FFF7D2FF6D
:105090000446012C05D06248006920F002006049F6
:1050A0000861204670BD70B505460E46FF20FFF72B
:1050B000C1FF044694B95A48006940F001005849BC
:1050C00008612E80FF20FFF7B5FF0446012C05D0B4
:1050D0005348006920F0010051490861204670BD25
:1050E0000146088870472DE9F04105460E461746EF
:1050F000002407E036F814102846FFF7D4FFAD1C53
:10510000601C84B2BC42F5DBBDE8F08130B50346DB
:105110000C461546002207E01846FFF7E1FF24F889
:1051200012009B1C501C82B2AA42F5DB30BD2DE957
:10513000F05F80468A461746B8F1006F02D33A48BE
:10514000804501D3BDE8F09FFFF754FFA8F1006B45
:105150004FEADB25CBF34909C9F58064A74200DC9F
:105160003C464DE04FF0006101EBC5204A142F4949
:10517000FFF7CCFF00260BE009EB06002B4931F8C6
:1051800010004FF6FF71884200D003E0701C86B219
:10519000A642F1DB00BFA6421BDA4FF0006101EB33
:1051A000C520FFF75CFF002608E03AF8160006EB82
:1051B00009011E4A22F81100701C86B2A642F4DBD7
:1051C0004FF0006101EBC5204A141849FFF78BFF2F
:1051D00004E0224651464046FFF785FFA74200D132
:1051E0000FE06D1C4FF000090AEB440AA044381B85
:1051F00087B2B7F5806F02DD4FF4806400E03C4673
:10520000B0E700BFFFF7FCFE00BF9BE713B5044605
:10521000012201A92046FFF78AFF1CBD2301674533
:1052200000200240AB89EFCD00000808400D0020AF
:1052300010B50446206807490840B0F1005F08D166
:105240006068054908602068FAF77CFF024800683A
:10525000804710BD0000FE2F780000202DE9F05F90
:105260000546002092469B468846064681464024D5
:105270001BE0284641464746224600F042F8534686
:105280005A46C01A914110D311461846224600F0E2
:1052900029F82D1A67EB01084F462246012000210C
:1052A00000F020F817EB00094E41201EA4F1010484
:1052B000DFDC484631462A464346BDE8F09F000001
:1052C000064C074D06E0E06840F0010394E8070053
:1052D00098471034AC42F6D3FAF72EFF1458000862
:1052E00034580008202A04DB203A00FA02F100209A
:1052F00070479140C2F1200320FA03F31943904014
:105300007047202A04DB203A21FA02F0002170477E
:1053100021FA02F3D040C2F120029140084319461D
:10532000704700000FB4054B10B503A9044A02985A
:1053300000F018F810BC5DF814FB000091030008A1
:105340007C00002002E008C8121F08C1002AFAD120
:1053500070477047002001E001C1121F002AFBD1F5
:10536000704700002DE9FF4F8DB00F46054600261F
:1053700006E025280BD0DDE90F1290476D1C761C46
:1053800028780028F5D111B03046BDE8F08F002410
:10539000A246A1460122EC4900E0044315F8013F72
:1053A000203B02FA03F00842F7D128782A2810D0CF
:1053B0006FF02F022878A0F13001092914D80AEBE8
:1053C0008A0102EB410144F0020400EB010A6D1C6A
:1053D000F0E701CF5FEA000A03D544F40054CAF1B4
:1053E000000A44F002046D1C28782E2817D115F805
:1053F000010F44F004042A280ED06FF02F02287801
:10540000A0F1300109290AD809EB890102EB410119
:1054100000EB01096D1CF2E757F8049B6D1C28781E
:105420006C280FD006DC4C2817D068280DD06A28CD
:1054300014D104E0742810D07A280FD10DE044F480
:1054400000140AE044F4801401E044F44014697844
:10545000814202D104F580146D1C6D1C2A786E2ADD
:105460001FD00CDC632A31D004DC002A8BD0582AF0
:1054700011D1A3E0642A68D0692A0CD165E0732AAF
:105480002ED004DC6F2A73D0702A04D19BE0752AD9
:105490006FD0782A6ED01046DDE90F129047761C47
:1054A00050E1C4F30250022806D0032809D0042892
:1054B00001CF09D0066045E101CFF117C0E90061D5
:1054C00040E101CF06803DE106703BE117F8040B97
:1054D0008DF8000000208DF80100EB46012003E06C
:1054E00057F804BB4FF0FF3061074FF0000102D4C2
:1054F0000DE008F10101884649450FDA8045F8DBE7
:105500001BF808100029F4D108E008F101018846D1
:105510008142FADB1BF808100029F6D1DDE90F23E0
:10552000AAEB08008146214600F036F9304400EB32
:10553000080604E0DDE90F121BF8010B9047B8F1F3
:105540000108F7D221464846F7E00A21C4F3025386
:105550004FF0000B0891022B04D001CFC117032B91
:1055600009D00AE0FF1D27F00707F7E8020108E06D
:1055700032E01FE020E000B2C117042B01D140B29D
:10558000C117031E71F1000307DA4FF0000CD0EBD6
:105590000C006CEB01012D2302E0230504D52B2325
:1055A0008DF82430012303E0E30701D02023F7E73F
:1055B000984658E00A2110E010210EE010204FF02C
:1055C000000B08900CE010214FF0000B44F0040495
:1055D0004FF00809089103E008214FF0000B0891F3
:1055E000C4F30253022B04D001CF0021032B06D0B9
:1055F00006E0FF1D27F00707F7E8020103E080B28D
:10560000042B00D1C0B24FF0000823072BD5702A1D
:1056100007D0DDF820C08CF0100C5CEA0B0C05D034
:105620000EE040238DF82430012308E050EA010306
:1056300006D030238DF824308DF82520022398469B
:10564000DDF820C08CF0080C5CEA0B0C0BD150EAA2
:10565000010301D1630706D530238DF824304FF0C4
:105660000108A9F10109582A04D038A20B9208AA0E
:105670000A920BE03AA2F9E75B46089AFFF7EEFDC3
:105680000B9B9B5C0A9A521E0A92137050EA01020D
:10569000F2D10A98ADEB000000F1200B600702D5B3
:1056A00024F4803401E04FF00109D94502DDA9EB73
:1056B0000B0000E0002000EB0B0141440890AAEB36
:1056C000010AE00306D4DDE90F232146504600F02D
:1056D00063F806444FF0000908E009A911F8090031
:1056E000DDE90F12904709F10109761CC145F4DB91
:1056F000E0030CD5DDE90F232146504600F04CF8BD
:10570000064404E0DDE90F1230209047761C08992A
:10571000481E08900029F5DC08E00A980A990078EC
:10572000491C0A91DDE90F129047761CBBF100017C
:10573000ABF1010BF1DC21465046DDE90F2300F00F
:1057400019F806446D1C1BE609280100303132337C
:1057500034353637383961626364656600000000AD
:105760003031323334353637383941424344454697
:10577000000000002DE9F041044600251E461746B2
:10578000880404D405E039462020B0476D1C641E0F
:10579000F9D52846BDE8F0812DE9F0410446002501
:1057A0001E469046C80301D5302700E02027880414
:1057B00004D505E041463846B0476D1C641EF9D556
:1057C0002846BDE8F081000001CC01D8001401F0AA
:1057D000003C002801E401A0006C007801B40050F6
:1057E000019C018800440004000200018000400088
:1057F00020001000080004000200000000800040AB
:1058000000200010000800400020001000080004E4
:105810000002000034580008000000208000000052
:1058200044530008B458000880000020C01800004D
:1058300054530008000000000000000000000000B9
:105840000000000000000000FF00FF00FF0001005A
:10585000FF00FF000F0001000F000F000F0001000C
:10586000010001000100080000000000000000002D
:1058700000A24A040000000000000000010203042E
:1058800006070809000000000102030401020304E6
:1058900006070809020406080000000000000000D6
:1058A00000000000000000000000000000000000F8
:0458B00000000000F4
:0400000508000131BD
:00000001FF
