:020000040800F2
:10600000B82D002045610008059E00080D97000886
:10601000E99800085182000821C60008000000002D
:106020000000000000000000000000008BAF00082E
:10603000338800080000000039A6000875B5000884
:1060400091C600085F6100085F6100085F61000899
:106050005F6100085F6100085F6100085F61000820
:106060005F6100085F6100085F6100085F61000810
:106070005F6100085F6100085F6100085F61000800
:10608000318600085F6100085F6100085F610008F9
:106090005F6100085F6100085F6100085F610008E0
:1060A0005F610008B1B600085F6100085F61000829
:1060B0005F6100080DB900085F6100085F610008BA
:1060C0005F6100085F6100085F6100085F610008B0
:1060D0005F61000851C100085F61000865C30008E6
:1060E000758800085F6100085F6100085F61000853
:1060F0005F6100085F6100085F6100085F61000880
:106100005F6100085F6100085F6100085F6100086F
:106110005F6100085F6100085F6100085F6100085F
:106120005F6100085F6100085F6100085F6100084F
:10613000DFF80CD000F0ECFD00480047CDE500088A
:10614000B82D00200648804706480047FEE7FEE7D6
:10615000FEE7FEE7FEE7FEE7FEE7FEE7FEE7FEE717
:10616000F9B50008316100080048704714200108A3
:1061700010B50446FFF7F8FF0068005D00F001006D
:1061800010BD40EA01039B0703D009E008C9121FB4
:1061900008C0042AFAD203E011F8013B00F8013BE1
:1061A000521EF9D27047D2B201E000F8012B491E0D
:1061B000FBD270470022F6E710B513460A460446A4
:1061C0001946FFF7F0FF204610BD30B505462A46B8
:1061D0000B4612F8010B13F8014B08B1A042F8D09E
:1061E0001CB1002802D06D1CF1E7284630BD421CCE
:1061F00010F8011B0029FBD1801A7047CBB203E0D5
:106200000178994203D0401C521EF9D200207047F9
:1062100030B504460020034600E05B1C934203D2E5
:10622000E05CCD5C401BF8D030BD2DE9F0479146D5
:106230000F4680460446002614F8015B2DB1FFF797
:1062400093FF0068405DC007F6D12B2D02D02D2DA5
:1062500018D0641E4A463946204600F0A7FB27B1F5
:106260003968A14201D1C7F8008071054FF00204DE
:106270000BD54042002803DD06F088FA0460A00731
:10628000BDE8F08746F48066E4E70028F8DA06F017
:106290007DFA04606FF00040F2E7F0B480EA01029A
:1062A000D40F4200B2EB410F02D20246084611461B
:1062B0004A0042D0C30DDDB2C1F3C752AD1A202D42
:1062C00035DAC1F3160141F4000204B15242C5F1BE
:1062D000200602FA06F12A411044B3EBD05F23D026
:1062E000C4B1012DA0EBC35009DCF0BC4FF000425B
:1062F00002EAC352DBB200F5000000F0FEBB400032
:1063000000F1807000EBC350A0F1807040EAD170C2
:10631000490009E0490841EAC071A0EBC35000F50B
:106320000000400800EBC350F0BC00F0DDBB614250
:10633000012202EB4101001BF6E7F0BC704781F03F
:106340000041AAE780F00040A7E780EA010210B50B
:1063500002F00043400022D04A001FD0010E01EBA2
:106360001261C0F35600C2F3560240F4000042F43A
:106370000002A0FB022000047F39140400D0401C5E
:1063800050EA124001D44000491EC2B20C0604EB90
:10639000D010401C4008802A02D003E0002010BD2D
:1063A00020F00100002900DA0020184310BD30B4AD
:1063B00080EA010202F0004530F0004221F0004086
:1063C00013D090B1C30DD40DC2F31601C0F3160063
:1063D000E41A41F4000140F400027D34914201D3FB
:1063E000641C00E04900002C02DA30BC0020704739
:1063F0004FF400000023914201D3891A034340085F
:106400004FEA4101F7D151B1914202D14FF0004121
:1064100005E002D24FF0010101E06FF0010103EB52
:10642000C450284430BC00F05FBB2DE9FE4F8046CD
:1064300081EA0300C00F0C46009021F0004123F0D8
:106440000045B8EB0200A94105D2404621469046DE
:106450001C460B46024623F00040104347D0270D50
:10646000C7F30A00C3F30A510290401A0190402872
:106470006BDAC3F3130040F4801B0098924620B1FE
:106480000023D2EB030A63EB0B0B01985946C0F1D2
:106490004002504600F059FA06460D46504659460D
:1064A000019A00F071FA10EB08006141002487EABC
:1064B000115284EAE7731A4340D0009A62B3019AFA
:1064C000012A4FEA075215DC001B61EB02014FF075
:1064D000004202EA0752CDE90042001C41F580115A
:1064E00032462B4600F046FB03B0BDE8F08F404635
:1064F0002146F9E7001B61EB0201001C41F5801306
:1065000000185B412018A2F5001747EB030140EA91
:10651000D570B6196D4111E06D084FEA360645EAAF
:10652000C0754FEA0752001B61EB0201001C41F5E8
:10653000801149084FEA30000019514132462B467C
:1065400003B0BDE8F04F00F006BB00980122400008
:106550000023D0EB020263EBE073009821464FEA80
:10656000E074B8EB000061EB0401E9E783F000435D
:106570005BE781F0004158E72DE9FE4F81EA030413
:1065800004F0004421F0004100944FF0000B23F090
:10659000004350EA01045ED052EA03045BD0C3F327
:1065A0000A54C1F30A552C44A4F2F3340194A0FB1D
:1065B0000254C1F3130141F48011C3F3130343F4F4
:1065C000801301FB024400FB034E840A970A44EA4D
:1065D000815447EA8357A4FB076802958D0A05FB9F
:1065E00007854FEA932C04FB0C542705029D4FEAC4
:1065F000065847EA1637B5EB08056EEB070C870E11
:10660000920E47EA811742EA8312A7FB0201B6EB1A
:106610000B0164EB00042B0D43EA0C335E1844EBD2
:106620001C50DA465146E7FB0201C5F313044FEA5A
:106630000B3343EA14534FEA0432019C43EA060346
:10664000A4F10C040294009CCDE900B400F092FA8D
:1066500003B0BDE8F08F00200146F9E72DE9F04DC9
:1066600081EA030404F0004B21F0004514464FF08A
:10667000000A23F0004150EA050220D054EA01024A
:106680001DD0C5F30A570246C5F31303C1F3130027
:10669000C1F30A5640F4801543F48013A7EB0608B3
:1066A000101BD64608F2FD3873EB050002D308F143
:1066B000010801E092185B41B8F1000F03DA0020F5
:1066C0000146BDE8F08D00204FF480110646844657
:1066D0000EE0171B73EB050705D3121B63EB0503D5
:1066E00006434CEA010C49084FEA300092185B411E
:1066F00050EA0107EDD152EA030012D082EA040009
:1067000083EA0501084305D0101BAB4106D20122E4
:10671000002306E000224FF0004302E06FF0010288
:1067200053101AEB06004CEB085110EB0A0041EB3A
:106730000B01BDE8F04D00F00EBA96230022114681
:1067400000F0DBB90EB5C10F80EAE0700844CA075B
:10675000002140F233438DE80E000A460B4600F05C
:1067600009FA03B000BD20F00040C10DC0F31600CF
:1067700040F400007F2901DA00207047962903DCED
:10678000C1F19601C840704796398840704770B58E
:10679000C1F30A5201F000450024C1F3130140F295
:1067A000FF3341F480119A4201DA002070BD40F2BB
:1067B00033439A42A2F2334203DC524200F0D4F84F
:1067C00000E090402C43F1D0404270BDC1F30A522A
:1067D00010B5C1F3130140F2FF3341F480119A4226
:1067E00001DA002010BD40F233439A42A2F2334254
:1067F00003DC524200F0B8F810BD904010BD00F02C
:10680000004230F000400AD0C10D01F56071C0F3C4
:10681000160042EA0151C2084007114370470020A8
:106820000146704730B5041E71F1000404DB4FF0DF
:106830000044404264EB0101141E73F1000405DBC7
:106840001C464FF00043524263EB04038B4208BFE7
:10685000824230BD30B5041E71F1000404DB4FF0FC
:106860000044404264EB0101141E73F1000405DB97
:106870001C464FF00043524263EB0403994208BFA9
:10688000904230BD01F0004330B421F0004150EAA5
:10689000010206D00A0DA2F56072C1F31301002AAD
:1068A00002DC30BC00207047440F44EAC104C10040
:1068B000E01830BC00EBC25000F016B930B50B4602
:1068C000014600202022012409E021FA02F59D4220
:1068D00005D303FA02F5491B04FA02F52844151EF4
:1068E000A2F10102F1DC30BD2DE9F05F0546002088
:1068F00092469B4688460646814640241BE0284631
:1069000041464746224600F02FF853465A46C01AE1
:10691000914110D311461846224600F016F82D1A60
:1069200067EB01084F4622460120002100F00DF8D8
:1069300017EB00094E41201EA4F10104DFDC48469C
:1069400031462A464346BDE8F09F202A04DB203A20
:1069500000FA02F1002070479140C2F1200320FAB2
:1069600003F3194390407047202A04DB203A21FAB0
:1069700002F00021704721FA02F3D040C2F1200258
:106980009140084319467047202A06DBCB17203A6E
:1069900041FA02F043EAE07306E041FA02F3D04024
:1069A000C2F1200291400843194670472DE9F05F7B
:1069B00082460078002715468B460AF10104B94645
:1069C000302801D09DB113E014F8010B012778287D
:1069D00003D0582801D045B10AE00DB1102D07D1E0
:1069E0000027102514F8010B02E0082500E00A2515
:1069F0000026B0460EE005FB080005FB06F1012766
:106A000001EB10461FFA80F8B6F5803F00D3B94677
:106A100014F8010B294600F08DF90028EBDABBF1E0
:106A2000000F05D00FB1641E00E05446CBF80040C3
:106A3000B9F1000F06D005F0A9FE02210160C81EC1
:106A4000BDE8F09F48EA0640FAE700000FB40023D3
:106A500000B589B00CA900910B996FF00042CB6092
:106A60001E4B06931E4B07930423CDE901321D4AAA
:106A7000089202466B46002000F0EAF909B05DF882
:106A800014FB70B586B006464FF0FF300091CDE99B
:106A90000101002015460C4604903246694604A8C0
:106AA000FFF7D4FF03460498211825B108B10A4620
:106AB00000E022462A6000280DD0002B02DD00985D
:106AC000884208D0081B0094CDE90104324669468B
:106AD00004A8FFF7BBFF06B070BD00008970000876
:106AE000A7700008716100080029A8BF7047401C0A
:106AF000490008BF20F00100704710B4B0FA80FCD4
:106B000000FA0CF050EA010404BF10BC704749B110
:106B1000CCF1200421FA04F411FA0CF118BF012180
:106B200021430843A3EB0C01CB1D4FEA00614FEA60
:106B3000102042BF002010BC704700EBC35010442F
:106B40000029A4BF10BC7047401C490008BF20F0BA
:106B5000010010BC704710B5141E73F1000408DA70
:106B6000401C41F1000192185B411A4301D120F011
:106B7000010010BD2DE9F04D92469B4611B1B1FACE
:106B800081F202E0B0FA80F220329046FFF7DDFE9B
:106B900004460F4640EA0A0041EA0B0153465A46B2
:106BA000084313D0114653EA010019D0C8F140023E
:106BB0005046FFF7D9FE05460E4650465946424616
:106BC000FFF7C3FE084305D0012004E02046394604
:106BD000BDE8F08D0020054346EAE0762C433743BC
:106BE0000A986305E40AA0EB08000022FD0A44EAC3
:106BF00047540A3002D500200146E9E70105101983
:106C00006941DDE9084500196941BDE8F04DA2E799
:106C100070B521F0004303430CD0C1F30A550024A2
:106C2000D5EB040564EB0403D617AD1AB34102DBC0
:106C30000020014670BD201841EB025170BD2DE9C6
:106C4000F04D00231A461B1A8A4103DB002001463F
:106C5000BDE8F08DC1F30A52C1F3130141F4801570
:106C60004FF0000BD10702D100186D41521E0027D2
:106C7000044640F2FF11384601EB620A3E46804668
:106C8000024600204FF48011FFF76EFEC2197141D9
:106C9000BB1846EB0100B4EB030C75EB000C04D3FE
:106CA000E41A65EB000517460E46241908F10100A9
:106CB0006D4180463428E3DDF91946EB0600091BD7
:106CC000A84103D24FF0FF32134601E000221346E1
:106CD0001BEB070046EB0A51BDE8F04DFFF73BBF49
:106CE000C1F30A52C1F3130140F2FF3341F48011A2
:106CF0009A4202DA00200146704740F233439A423A
:106D0000A2F2334202DC5242FFF72EBEFFF71DBE55
:106D1000064C074D06E0E06840F0010394E80700E8
:106D200098471034AC42F6D3FFF706FAAC210108BD
:106D3000CC2101083A2800D2303820F02002412A24
:106D400001D3A2F13700884201D34FF0FF307047E2
:106D50002DE9FF4F087881B09946FF2805D0491CDE
:106D60002D2804D00024002308E000230BE0012498
:106D7000F9E703EB830300EB4303491C0878FF2882
:106D8000F7D104B15B4200200090147801462D2C0D
:106D900001D02B2C04D1521C2D2C12D00024009495
:106DA00000251678FF2E0ED00A24A0FB04C801FB94
:106DB0000481002700FB0711521C16EB0C006941EF
:106DC000EFE70124EBE7994450EA01020ED00024DA
:106DD000AA4D2646DFF8A88200F083F982468B464A
:106DE000B9F1000009DAC9F100071BE001980021A0
:106DF000C0E9001105B0BDE8F08F074612E0F807C2
:106E000007D022462B4630464146FFF7B5FB0646E3
:106E1000884622462B4610461946FFF7ADFB04462E
:106E20000D467F10002FEAD1B9F1000F32464346DC
:106E30005046594602DAFFF711FC01E0FFF79CFBD0
:106E4000009A0AB181F00041019AC2E90001D1E73C
:106E50002DE9FF4F1F468DB0D7E901464FF0FF38AF
:106E60002E2045464FF000090B90B9696D1C0E9815
:106E70008847396A824688470028F6D1BAF1FF3F31
:106E80000AD024F4D064002E11DDBAF12B0F08D003
:106E9000BAF12D0F0BD102E0404611B0ABE744F43C
:106EA0008064B9696D1C0E9888478246761E6946D3
:106EB000600501D52D2000E02B208DF8000001F1A8
:106EC000010B0DF1200809E0B9696D1C0E98884787
:106ED00082460F9844F40074761E0560002E02DD91
:106EE000BAF1300FF0D00B998A453ED144F08004BE
:106EF00006E00F99681CA9F1010944F400740860C8
:106F0000B9696D1C761E0E98884782463028F0D0ED
:106F10002BE00B998A4505D1200603D444F0800468
:106F2000761E18E0504606F02DF808B30DF1130157
:106F3000761E44F400748B4508D2AAF130000BF899
:106F4000010B200607D5A9F1010003E0200602D4B9
:106F500009F101008146A00502D50F99681C08605F
:106F6000B9696D1C0E9888478246002ED1DC53E02B
:106F7000002E51DDBAF1650F02D0BAF1450F4BD1A9
:106F8000A00549D5B9696D1C24F44074761E0E988D
:106F900088478246002E0CDD2B2804D0BAF12D0F35
:106FA00007D144F48074B9696D1C0E9888478246F5
:106FB000761EE00501D52D2100E02B2108F8011BEC
:106FC000CDF82C8021E00DF12901761E44F40074E7
:106FD00088450CD2AAF1300010F0FF0088F80000BC
:106FE00002D10B99884509D908F1010806E0E005AE
:106FF00001D5244801E042F20F708146B9696D1C49
:107000000E98884782460F980560002E04DD504692
:1070100005F0B8FF0028D6D1F9690E988847FF20FF
:107020008BF8000088F800000020069007904B467F
:107030006A4608A906A8FFF78BFEA00502D46FF0E8
:1070400001002AE714F0240F0AD0E00714D1DDE98B
:1070500006123868031D3B600068C0E900120BE0AF
:10706000DDE90601FFF70EFC0146E00704D13868B0
:10707000021D3A600068016028460EE700002440C7
:107080000000F03FF1D8FFFF426842B1016811F8FB
:10709000013B23B1521EC0E900121846704701217E
:1070A000C160881E704742685AB1C368016843B91D
:1070B00083688B4205D0491E521CC0E90012002093
:1070C00070474FF0FF3070470EB540F233410291E8
:1070D0000021CDE900110A460B46FFF74BFD03B036
:1070E00000BD0EB540F2334202920022CDE90022EB
:1070F0001346FFF73FFD03B000BD70B58D1810F8C3
:10710000014B14F0030201D110F8012B231106D119
:1071100010F8013B03E010F8016B01F8016B521EFF
:10712000F9D1ABB110F8012B04F00C048A1A0C2C25
:1071300003D0A2EB84129B1C08E010F8014BA2EBD9
:107140000422F8E712F8014B01F8014B5B1EF9D558
:10715000A942D4D3002070BD08B50121084603F030
:10716000ADFC01214FF4067003F0D8FC0220ADF80D
:10717000000000208DF803006946194801F014FD55
:107180000420ADF8000000208DF803006946144883
:1071900001F00AFD0820ADF8000000208DF8030082
:1071A00069460F4801F000FD0120ADF80000002005
:1071B0008DF8030069460B4801F0F6FC0220ADF89B
:1071C000000010208DF8030003208DF802006946AE
:1071D000044801F0E9FC0221024801F0B9FD08BDB4
:1071E00000100140000C014010B5FFF7B5FF00F0A2
:1071F00001F810BD00B591B03D4801F037FA3D48A7
:1072000006903D4807900020089004200990002037
:107210000A9080200B9040000C9080000D90202060
:107220000E9000020F900020109006A9304801F047
:10723000E2FA01212E4801F00DFA00200190012010
:107240008DF808008DF809004FF4602003900020AD
:10725000049004208DF8140001A926484C3800F051
:1072600033F94FF4404003F01DFC052301220B21AC
:1072700020484C3800F050F9052302220C211D480B
:107280004C3800F049F9052303220D2119484C38E8
:1072900000F042F905230422082116484C3800F07A
:1072A0003BF9012113484C3800F033F80121114813
:1072B0004C3800F023F80F484C3800F089F900BF33
:1072C0000C484C3800F03AF80028F9D109484C38FD
:1072D00000F08EF900BF07484C3800F025F8002870
:1072E000F9D1012103484C3800F077F911B000BD05
:1072F000080002404C2401401400002021B18268A3
:1073000042F00102826003E0826822F001028260A2
:10731000704721B1826842F48072826003E0826823
:1073200022F4807282607047014600208A6802F071
:1073300004020AB1012000E000207047014600204D
:107340008A6802F008020AB1012000E000207047BC
:107350002DE9F0475548007800280BDD53480178A7
:107360000078401C514A1070142902D100201146A7
:10737000087099E04E48006808B34D480068401E08
:107380004B4908604B4800684B4909880844494903
:1073900008600846406848494988084445494860AB
:1073A00008468068444989880844424988600846FC
:1073B000C0684149C98808443E49C86074E0C82093
:1073C0003B4908603B490868FFF7B7F982463B49EB
:1073D000FEF7EDFF81464FF08B41FEF7E8FF0446D4
:1073E000FFF70DFA07464FF06632354BFFF7C4F84A
:1073F0000546FFF747FA334908602E494868FFF70A
:107400009CF982462D49FEF7D2FF81464FF08B4111
:10741000FEF7CDFF0446FFF7F2F907464FF066325C
:10742000274BFFF7A9F80546FFF72CFA25494860D6
:1074300020498868FFF781F982462049FEF7B7FFA7
:1074400081464FF08B41FEF7B2FF0446FFF7D7F9B4
:1074500007464FF066321A4BFFF78EF80546FFF7E6
:1074600011FA184988601349C868FFF766F982461F
:107470001249FEF79CFF81464FF08B41FEF797FFC4
:107480000446FFF7BCF907464FF066320C4BFFF796
:1074900073F80546FFF7F6F90A49C8600020054968
:1074A000086048608860C860BDE8F0879D010020E2
:1074B0001C00002098070020140000200000484312
:1074C00066660A402000002030B5024600200023F6
:1074D00050680F4C20400D790C6844EA0524204385
:1074E000506090680B4C2040D1E902542C434D79F8
:1074F00044EA450420439060D06A20F470000C7C7C
:10750000641EE4B2234340EA0350D06230BD000061
:10751000FFFEF0FFFDF7F1FFF0B504460D46002039
:107520000021092D11DDE068A5F10A0606EB4607EA
:10753000072606FA07F18843A5F10A0606EB460678
:1075400003FA06F10843E0600CE0206905EB45070B
:10755000072606FA07F1884305EB450603FA06F10C
:1075600008432061072A0FDA606B561E06EB860778
:107570001F2606FA07F18843561E06EB860605FA13
:1075800006F10843606322E00D2A0FDA206BD61F54
:1075900006EB86071F2606FA07F18843D61F06EB7F
:1075A000860605FA06F10843206310E0E06AA2F1BE
:1075B0000D0606EB86071F2606FA07F18843A2F19F
:1075C0000D0606EB860605FA06F10843E062F0BDFB
:1075D000816841F008018160704721B1826842F4FE
:1075E000A002826003E0826822F4A00282607047F9
:1075F000816841F0040181607047000038B50024C3
:1076000032E000F03BF8642800D12EE000BF1848BB
:1076100000780028FBD000201549087004F016FD02
:107620002046641C32281FDD02226946114803F0FF
:1076300010FCBDF8000010490870BDF80200487049
:10764000BDF8001021F08001491FC8B208F0C0FF4A
:107650000F2001F0EFF8BDF80020D1B2BDF80220F4
:10766000D0B208F075FF00E0CBE700BF002038BDC6
:107670000000002000FF01080E0100202DE9FE435C
:107680000026B046A94800780A2875DD0024F7E0F6
:10769000002E73D100BFA549601C085C3D2802D1B3
:1076A000701CC6B2EAE0A149601C085C75281ED1B6
:1076B00008460078001B0A2819DB04F10C00085C5E
:1076C0000A2814D14FF0FF08002508E0601C284468
:1076D000401C9649085C96494855681CC5B20B2D5C
:1076E000F4DB00F035F904F10B00C4B2C6E08F49B9
:1076F000601C085C75281ED108460078001B1728FE
:1077000019DB04F11900085C0A2814D14FF0FF08B6
:10771000002508E0601C2844401C8449085C84491A
:107720004855681CC5B2182DF4DB00F011F904F1BE
:107730001A00C4B2A2E07D49601C085C7528B1D172
:1077400008460078001B0528ACDB04F10800085C43
:107750000A28A7D14FF0FF08002508E0601C284444
:10776000401C7249085C72494855681CC5B2072D17
:10777000F4DB4FF0640889E089E0FFE7002E7DD05C
:107780000B2E08DA6949601C085C3D2803D1701C87
:10779000C6B2002722E00B2E14D1052F12DA63495E
:1077A000601C085C402804D1012F02DD701CC6B2A9
:1077B00014E05E49601C0A5C3846791CCFB201A90E
:1077C0000A540BE00B2E07DD5849601C085C40286A
:1077D00002D1701CC6B201E000265CE7162E4DD126
:1077E0009DF80400032820D005DC58B1012811D0F1
:1077F00002283ED116E004281FD0052833D0FA28ED
:1078000037D133E000204B4908604FF001084A4966
:10781000087031E04FF0020847480078401C4649A4
:10782000087029E04FF0030826E04FF004084148B3
:107830000068401C3F4908601EE09DF806000128D2
:107840000BD14FF0050800203B4908700120394951
:10785000086000203949087004E04FF00608012054
:107860003649087008E04FF0070805E04FF00808B7
:1078700002E04FF0000800BF00BF0026601CC4B249
:107880002A480078401CA0423FF702AF00BFB8F181
:10789000640F45D12A480078F0BB012028490870C0
:1078A0002348807803283BD12148C078AA2837D1C3
:1078B0001F480079552833D11D48007821490870A8
:1078C0001B484078487008460078ADF8000008462C
:1078D0004078ADF80200164800781B49087014483B
:1078E0004078487002226946184803F0C7FABDF88C
:1078F000001021F08001491FC8B208F069FE0F2076
:1079000000F098FFBDF80020D1B2BDF80220D0B23F
:1079100008F01EFE802100E002E00548FEF74AFC68
:107920000020024908704046BDE8FE83401900204F
:1079300088180020000100205000002005010020D0
:107940009B0100200E010020A00B002000FF010879
:10795000F8B5FA4801680068401CF84A1060C82968
:1079600004D100221146104602F086F9F34800685F
:10797000B0F5967F02DDFA20F0490860F0484079C2
:10798000F0490968884275D0ED480078EE490978D9
:1079900088426FD1EA484078EB4949788842F8D16B
:1079A000E7484079E7490860E5488078002870D1C9
:1079B000E648006880F00400E4490860E048007A86
:1079C00001280CD100221146104602F055F9002082
:1079D000DF490870DF490870DF490870BFE0D84808
:1079E000007A0028FAD10120DC490870D648807955
:1079F00000F0F800D44988710846807940F0010011
:107A000088710020CD490860CD48C079D4490870FC
:107A1000CB488079D3490870C9488079282811DB80
:107A2000C74880793C280DDCC548C0793C2809DA74
:107A3000C348C079282805DD00221146104602F00F
:107A40001BF98CE0C748007832282FDDC448007845
:107A5000282810DBC24800783C280CDCC14800789C
:107A600032384200BF48007832384100012002F02D
:107A700003F974E0CDE2BA4800783C280ADBB84844
:107A80000078C0F1640042006421032002F0F4F8A1
:107A900065E063E2B2480078282860DCB0480078EE
:107AA00041006422032002F0E7F858E0AD48007876
:107AB000282821DBAA4800783C280BDBA84800785E
:107AC00032384200A648007832384100062002F0E1
:107AD000D3F844E0A2480078282840DCA048007889
:107AE000C0F1320042009E480078C0F132004100EF
:107AF000052002F0C1F832E09A48007828282EDAF2
:107B000097480078282811DB954800783C280DDC40
:107B100094480078C0F13200420092480078C0F1E9
:107B200032004100022002F0A7F818E08C480078EB
:107B30003C2809DB8A480078C0F1640042006421D7
:107B4000022002F099F80AE085480078282806DC2F
:107B50008348007841006422022002F08DF87848C2
:107B6000007A28B109207C49087000207E4908600D
:107B70007348007A18286ED2DFE800F00C0D13DF8E
:107B8000DEDDDC6E849DB7DB421DDAD9D8D76AD63C
:107B9000D5D4D3D2E1E100221146104602F06CF8B0
:107BA000DBE10120714908717148007800F0EF00B5
:107BB0006F490880D1E101206E490870142000F05F
:107BC00039FEC0216C4804F00EFD142000F032FE96
:107BD000C021694804F007FD142000F02BFEC021ED
:107BE000654804F000FD41F28830644908602822AD
:107BF0001146062002F040F800205E490870ACE112
:107C00005F4800221346D0E900412046FEF70AFEF5
:107C100008D15C4800221346D0E900412046FEF717
:107C200001FE14D0564903C9574A03C25548D0E94A
:107C30000010564AC2E9001001204649087002208F
:107C4000534908704449087001204149087084E193
:107C500002F00AFE81E17FE100221146104602F0A7
:107C60000BF800204A49087003203B490870494836
:107C7000006806F094FA3448807940F08000324978
:107C800088716AE100221146104601F0F5FF0420D8
:107C900031490870404903C9394AC2E902013F49E4
:107CA00003C9384AC2E902012748807940F0400000
:107CB0002549887151E100221146104601F0DCFF90
:107CC000042025490870344903C92D4AC2E904013A
:107CD0003248D0E900102B4AC2E904101A488079D2
:107CE00040F020001849887137E100221146104603
:107CF00001F0C2FF0420184908702748D0E900109D
:107D00001F4AC2E906102548D0E900101D4AC2E901
:107D100006100D48807940F010000B4988711CE175
:107D20000DE1FFE0F1E0E3E0D5E053E0C0E099E0F1
:107D3000ABE035E06EE077E080E089E068010020AC
:107D400088180020640100200E0100200C1801405A
:107D50000A01002051000020A80100203F0100205E
:107D60003D0100203E0100203801002034000020A9
:107D700024010020040100200038014020010020DF
:107D8000A8090020D00900207800002080000020F1
:107D90000B01002018010020C8000020C0000020B6
:107DA00000221146104601F067FF0420C749087001
:107DB000C748D0E90010C74AC2E90810C64903C93C
:107DC000C64AC2E90801C648807940F00800C449A3
:107DD0008871C2E0C3480079BE4901EBC000D0E918
:107DE0000010C14AC2E90010BE480079BB4901EB4E
:107DF000C000D0E90010BD4AC2E900100120BC4912
:107E000008700220BB490870B04908700120BA49C7
:107E10000870A2E00120B949C870B948007800F0A4
:107E2000F700B749088098E00120B4498870B44849
:107E3000007800F0FB00B24908808EE00120AF49D5
:107E40004870AF48007800F0FD00AD49088084E03C
:107E50000120AA490870AA48007800F0FE00A8494D
:107E600008807AE0A748007808B9012000E00020E7
:107E7000A44908700020A4490870A4490870A148CA
:107E800001780F2006F03CF867E09F48007808B9B9
:107E9000012000E000209C490870002099490870EA
:107EA0009A490870984801780E2006F029F854E0A5
:107EB0009648007808B9012000E000209349087036
:107EC0000020914908708F4908709048017810206F
:107ED00006F016F841E0002000907E48D0E900430B
:107EE0007E482246D0E90061304602F0A7FB34E02C
:107EF000012078490090D1E902437849D1E9026133
:107F00002246304602F09AFB27E00220009071489A
:107F1000D0E9044371482246D0E90461304602F0BA
:107F20008DFB1AE003206B4900906C48D1E90643B1
:107F30002246D0E90661304602F080FB0DE00420C5
:107F4000644900906548D1E908432246D0E90861B8
:107F5000304602F073FB00E000BF4CE061488078DF
:107F6000022806D16A48006880F004006849086069
:107F700041E05C48807804283DD15A48C07C0628FE
:107F800039D100206349086016E062480068C01CCF
:107F90005449085C60495F4A126888545D4800682B
:107FA0000B305049085C5D495A4A12688854594858
:107FB0000068401C57490860564800680828E4DB00
:107FC000554903C9474A127D444B03EBC20203C221
:107FD0005248D0E90010434A127D3E4B03EBC202E7
:107FE000C2E900103E4880793E490A7D8021114156
:107FF00008433B49887100204949087001204949DC
:1080000008603248007807285CD100202F490870AA
:1080100058E03448007832490978884252D13148D2
:1080200040782F49497888424CD12E4880780428DE
:108030003BD12C48C07C062837D100203549086048
:1080400016E034480068C01C2649085C3249314AB1
:10805000126888542F4800680B302249085C2F4969
:108060002C4A126888542B480068401C2949086033
:10807000284800680828E4DB274903C9194A127D0B
:10808000164B03EBC20203C2244903C9154A127DF1
:10809000104B03EBC20203C21148807911490A7DDB
:1080A0008021114108430E49887100201C49087045
:1080B00001201C49086005480078072802D10020EB
:1080C00002490870002018490870F8BDA801002076
:1080D000C8000020A8090020C0000020D00900200E
:1080E0000E01002088180020780000208000002069
:1080F000510000200B0100200A0100203400002064
:1081000024010020060100200701002008010020B2
:108110000C180140540000202801002030010020EC
:1081200050000020000100202407002070B53848CE
:108130000078384908703648407848703648D0E9A9
:108140000010344AC2E904103448D0E90010C2E9F2
:108150000610002011460872314890F8740081F82A
:1081600020002F4890F8700081F82100002008714D
:10817000487127488079C8712A480078887101F0D1
:10818000BFF964302349C870274948682749FEF77A
:10819000DCF80446FEF7E7FA1E49087122498868B0
:1081A0002249FEF7D2F80446FEF7DDFA1949487174
:1081B0001F4801880088401C1D4A1080B1F57A7F55
:1081C00003DAA8201349887011E017490868194993
:1081D000FEF7BBF805461849FEF75FF80446FEF7C0
:1081E000C2FA0C49887040F24C401149088013498A
:1081F00003C9FEF7EBFA074948620846C0791049FF
:108200000978884203D00348C0790D49087070BDD1
:108210000E010020A00B0020C0000020C80000209C
:10822000F8090020240100202000002000007A44EA
:1082300098010020000070420000C04008000020AB
:108240009A01002010B504F047F801F0DCFD10BDE4
:1082500000BFFEE770B59625962400263EE0214833
:108260000078302809DB1F484078302805DB1D489E
:108270008078302801DB641C00E0641E002C01DDE6
:10828000002D11DC002C01DC02F09EF90BE0012036
:1082900001F066FAC82000F0CDFA002001F060FA83
:1082A000C82000F0C7FAF2E731210F4804F09BF92B
:1082B00000BF80210C4804F0C8F80028F9D000BFA6
:1082C0000A4800780028FBD000200849087003F015
:1082D000BDFE3046761CC82800DD00E0BFE700BFC9
:1082E00070BD00002507002000380140000000207C
:1082F00010B5234801680068401E214A106000291B
:1083000034D101201F490870C1211F4804F06BF9C6
:1083100000BF80211C4804F098F80028F9D01420F0
:1083200000F088FAC121184804F05DF900BF8021EF
:10833000154804F08AF80028F9D0142000F07AFAE1
:10834000C121114804F04FF900BF80210E4804F00C
:108350007CF80028F9D0142000F06CFA00221146B5
:10836000104601F089FC00200649087004480068A6
:1083700010F10A0F03DC6FF009000149086010BD1D
:1083800020010020040100200038014010B5002029
:1083900028B39548006894490968491C924A1160BD
:1083A00092490968B1EB800F18DA9148006808B962
:1083B000012000E000208E4908600846006828B1CE
:1083C0004FF480718B4800F0C5FC04E04FF48071DD
:1083D000884800F0BDFC00208349086003E186481E
:1083E000007800F00200002853D0844800688349D8
:1083F0000968491C814A116081490968B1EB800F05
:10840000ECDA8048006808B9012000E000207D49CE
:1084100008600846006820B18021764800F09AFC88
:1084200003E08021734800F093FC4FF480717148A1
:1084300000F08EFC7348006828B14FF480516D48FD
:1084400000F088FC04E04FF480516A4800F080FCA2
:108450004FF40061674800F07BFC4FF40051654821
:1084600000F076FC6748006828B14FF4804161480D
:1084700000F070FC04E04FF480415E4800F068FCBE
:108480004FF400415B4800F063FC00205B4908604A
:10849000A9E05948007800F00400002854D05A4858
:1084A000006859490968491C574A116057490968C9
:1084B000B1EB800F92DA5648006808B9012000E05D
:1084C00000205349086080214A4800F041FC504890
:1084D000006828B14FF48071464800F03BFC04E08E
:1084E0004FF48071434800F033FC4FF48051414811
:1084F00000F02EFC4648006828B14FF400613D486A
:1085000000F028FC04E04FF400613A4800F020FC41
:108510003F48006828B14FF40051364800F01AFC7B
:1085200004E04FF40051334800F012FC4FF4804156
:10853000304800F00DFC4FF400412E4800F008FCDC
:108540000020314908604EE02B48006840BB002005
:1085500025490860294908602B4908602D480078A2
:1085600028B12C4801780F2005F0CAFC14E02A48F5
:10857000007828B1284801780E2005F0C1FC0BE0F6
:108580002648007828B125480178102005F0B8FC6D
:1085900002E0002001F0E4F808201749086022E01A
:1085A0001F48007832281ED11348006808281AD1C5
:1085B0001C4800681B490968491C1A4A11601A497D
:1085C0000968B1EB800F0EDA1848006808B901207D
:1085D00000E00020154908600846006801F0C0F876
:1085E00000201049086010BD80010020F800002024
:1085F0009001002000180140EC00002078010020CC
:10860000F0000020880100207C010020F400002000
:108610008C01002006010020070100200801002035
:108620003C01002084010020FC0000209401002077
:1086300010B500F007FF10BD00F0805111B10349E3
:10864000086001E0024948607047000004040240ED
:108650000000024021B1026842F00102026004E021
:1086600002684FF6FE731A400260704701684FF6C9
:10867000FE72114001600021016041608160C160B3
:108680004B49884208D14A490839496841F00F01ED
:10869000474A083A51608AE045491431884208D176
:1086A00043490839496841F0F001414A083A5160AC
:1086B0007DE03F492831884208D13D490839496861
:1086C00041F470613A4A083A516070E038493C31EF
:1086D000884208D136490839496841F47041344A22
:1086E000083A516063E032495031884208D130493C
:1086F0000839496841F470212D4A083A516056E022
:108700002B496431884208D129490839496841F424
:108710007001274A083A516049E02549783188427A
:1087200008D123490839496841F07061204A083A64
:1087300051603CE01F49884206D1011F096841F0A1
:108740000F01021F116032E01A491431884208D12A
:108750001849091F096841F0F001164A121F1160FB
:1087600025E014492831884208D11249091F0968B7
:1087700041F470610F4A121F116018E00D493C313D
:10878000884208D10B49091F096841F47041094A20
:10879000121F11600BE007495031884207D105498B
:1087A000091F096841F47021024A121F11607047C5
:1087B000080002400804024001460020002201F0A7
:1087C000805313B1054B1A6801E0054B1A6802EAA1
:1087D00001030BB1012000E00020704700040240BB
:1087E000000002401AB103680B43036002E0036813
:1087F0008B430360704710B50022026847F6F073A0
:108800009A430C6A8B6823430C6923434C692343C6
:108810008C692343CC6923434C6A23438C6A2343EA
:108820001A430260CB6843600B6883604B68C36087
:1088300010BD704701B503E04FF47A7000F006F800
:108840000098411E00910028F6D108BD01B50849E5
:10885000009808604FF0E020006940F001004FF000
:10886000E021086100BF024800680028FBD108BD74
:10887000E001002010B54FF4006000F005F808B1E9
:1088800002F02EFE10BD0000014600200022074B22
:108890001B6803EA0102054B14331B680B4013B13C
:1088A0000AB1012000E000207047000000040140F0
:1088B00030B5044604254FF4302000F09DF80546FD
:1088C000042D17D10C48006940F002000A490861E4
:1088D00008464461006940F0400008614FF43020D0
:1088E00000F08AF805460448006941F6FD71084029
:1088F00001490861284630BD0020024004200B4990
:10890000C96801F0010109B101200EE00749C968F9
:1089100001F0040109B1022007E00449C96801F02F
:10892000100109B1032000E004207047002002403C
:108930000348006940F08000014908617047000069
:108940000020024070B504460D460426F00200F0F7
:1089500053F80646042E11D10948006940F0010081
:10896000074908612580F00200F046F806460448F1
:10897000006941F6FE71084001490861304670BD4A
:108980000020024002460020124B186017E01148F8
:108990000068114B33F810000E4B1B6822F81300CF
:1089A0000C480068401C0B4B186018460068884251
:1089B00005D90020094B1870184600787047054803
:1089C00000688842E3D30120044B187018460078F1
:1089D000F4E70000D801002000F00108D4010020D5
:1089E00002480349486003484860704723016745CF
:1089F00000200240AB89EFCD00B502460423FFF70B
:108A00007DFF034603E0FFF779FF0346521E012B6B
:108A100001D1002AF7D102B90523184600BD000094
:108A200070B50748006800F07F040548001F006823
:108A300000F07F05A54201DA03F024FE70BD0000BE
:108A4000042C00402DE9FF4F81B080468946164630
:108A500016B905B0BDE8F08F0C2E00DDF9E7D8F8A7
:108A600000A0D8F80440D8F80850D8F80C70D8F80E
:108A700010B0D8F8140000900498002844D0B81919
:108A8000182801D2374480E0B819A0F11807012C4A
:108A900009D0032C07D0052C05D0072C03D0082CB7
:108AA00001D00A2C06D11F2D01D26D1C6DE00125CD
:108AB000641C6AE0042C05D0062C03D0092C01D0DC
:108AC0000B2C06D11E2D01D26D1C5EE00125641C0D
:108AD0005BE0022C0DD11D2D06D01C2D07D10AF014
:108AE000FF0000F023FE10B90125641C4DE06D1C51
:108AF0004BE00C2C49D11F2D01D26D1C45E0012506
:108B000001240AF1010A40E0B74201D3BF1B3CE057
:108B100007F11800871B022C09D0042C07D0062C63
:108B200005D0082C03D0092C01D00B2C06D1012D27
:108B300001D96D1E29E01F25641E26E0052C05D0F5
:108B4000072C03D00A2C01D00C2C06D1012D01D901
:108B50006D1E1AE01E25641E17E0032C0BD1012D9B
:108B600007D10AF0FF0000F0E1FD10B91C25641EDA
:108B70000BE06D1E09E0012C07D1012D01D96D1EFE
:108B800003E01F250C24AAF1010AC9F800A0C9F8C6
:108B90000440C9F80850C9F80C70C9F810B0009822
:108BA000C9F8140000BF54E72DE9F0410246002542
:108BB0000026002000230024002791F803C00CF0B9
:108BC0000F0591F803C00CF0100CBCF1000F03D09E
:108BD00091F802C04CEA050591F800C0BCF1000F05
:108BE00031D0146800202BE04FF0010C0CFA00F398
:108BF000B1F800C00CEA03069E4220D183004FF07A
:108C00000F0C0CFA03F7BC4305FA03FC4CEA04040E
:108C100091F803C0BCF1280F06D14FF0010C0CFAFB
:108C200000FCC2F814C00AE091F803C0BCF1480F80
:108C300005D14FF0010C0CFA00FCC2F810C0401C2A
:108C40000828D1D31460B1F800C0BCF1FF0F34DDA7
:108C5000546800202EE000F1080C4FF0010808FADB
:108C60000CF3B1F800C00CEA03069E4221D1830048
:108C70004FF00F0C0CFA03F7BC4305FA03FC4CEA67
:108C8000040491F803C0BCF1280F05D100F1080CD1
:108C900008FA0CF8C2F8148091F803C0BCF1480F30
:108CA00007D100F1080C4FF0010808FA0CF8C2F8DF
:108CB0001080401C0828CED35460BDE8F08100002D
:108CC000F0B50A46002300240021002500F00046EC
:108CD000B6F1004F02D11D4EF16901E01B4E7168E3
:108CE000C0F3034583B200F44016B6F5401F08D127
:108CF00021F07061154E766826F07066134F7E6025
:108D000012E000F48016B6F5801F06D1032606FA9D
:108D100005F4A14341F0706106E0460D360103FA07
:108D200006F6B14341F0706122B1460D360103FAF7
:108D300006F6314300F00046B6F1004F02D1034E73
:108D4000F16101E0014E7160F0BD000000000140E2
:108D5000416170470161704710B51A4800781428C6
:108D600010DA1949886819A1FDF72FFA28B11548BA
:108D70000078401C1349087004E012480078401E37
:108D8000104908700F480078012811D100201149BE
:108D9000087001201049087002F0B8FC002000F0B3
:108DA0004FFD002000F0DCFC01F00EF801F01EFC8D
:108DB0000448007820B901F019FC322001490870FC
:108DC00010BD00003C010020600B002047504753BD
:108DD00041000000A80100200401002010B503F0AC
:108DE000F1F900F001F810BD00B58BB00121084683
:108DF00001F064FE16480090164801900020029091
:108E00004FF4007003900020049080200590002013
:108E10000690079020200890C001099000200A9039
:108E200069460D48FFF7E7FC00F018F8012206211B
:108E30000948FFF7D7FC01210748FFF70BFC012287
:108E400040210348001F03F0F7FA0BB000BD0000FB
:108E500004440040A80700206C00024008B54FF40D
:108E6000C06001F01DF810208DF8000001208DF881
:108E7000010000208DF8020001208DF803006846F3
:108E800000F0D6FF08BD00002DE9F04F91B04FF083
:108E90000008C14600200E90FE48007868B1FE4BE5
:108EA0004FF48072FD49FE4805F022FE0020F9498A
:108EB00008700120FB49087084E0FB480078002816
:108EC000FAD0F54B4FF48072F849F54805F010FEE2
:108ED0000020F54908700120F2490870EE48D0E9F9
:108EE00012211046FDF753FC642190FBF1F048433A
:108EF0001090E948D0E910211046FDF748FC6421A4
:108F000090FBF1F048430F901098FDF71BFCCDE962
:108F10000201E148C16C806CCDE90001DDE902236A
:108F2000FDF724FB0022E24BCDE90401FDF724FB11
:108F30000022E04BCDE90601FDF790FB0022DE4B5D
:108F4000CDE90801FDF718FBCDE90C011098FDF7FC
:108F5000F9FBCDE90A01DDE90C23FDF766FACE4AFB
:108F6000C2E912010F98FDF7EDFBCDE90201CA48F5
:108F7000416C006CCDE90001DDE90223FDF7F6FA52
:108F80000022CB4BCDE90401FDF7F6FA0022C94BD4
:108F9000CDE90601FDF762FB0022C74BCDE90801D0
:108FA000FDF7EAFACDE90C010F98FDF7CBFBCDE90F
:108FB0000A01DDE90C23FDF738FAB74AC2E91001CE
:108FC00001200E900E9801287DD1B6480078012826
:108FD000FAD101230822B949AF48001DFFF732FD3D
:108FE0000020B0490870AC48C16C806C0022134668
:108FF000CDE90C01FDF716FC66D0A748416C006C6A
:1090000000221346CDE90C01FDF70CFCF4D0AC486E
:109010000078052803D1AB48007805281ED09E496A
:10902000D1E91001A74A13781278521CDFF894C2D4
:109030008CF80020A44A02EBC30203C29649D1E98E
:1090400012019F4A13781278521CDFF874C28CF810
:1090500000209E4A02EBC30203C22BE04FF004083B
:109060001BE0A8F10100984901EBC000D0E9001015
:10907000954A02EBC802C2E90010A8F10100934929
:1090800001EBC000D0E90010904A02EBC802C2E92F
:109090000010A8F1010000F0FF08B8F1000FE0DCBB
:1090A0007D49D1E91001884A03C27B49D1E9120107
:1090B000864A03C282480078052805D18148007895
:1090C0000528FAD101E090E120E14FF0000917E016
:1090D0007E4800EBC900D0E900107D4A02EBC902CE
:1090E000C2E90010784800EBC900D0E90010794AC5
:1090F00002EBC902C2E9001009F1010000F0FF090A
:10910000B9F1050FE4DB4FF0000A31E0002427E05D
:109110007049601C01EBC00003C8CDE90C016D482B
:1091200000EBC40103C9CDE90A01DDE90C23FDF719
:1091300079FB13D2674800EBC400C0C86549601CC6
:1091400001EBC000D0E90010624A02EBC402C2E9A0
:1091500000106049601C01EBC000C0C0601CC4B2BC
:10916000CAF10400A042D3DC0AF1010000F0FF0ABA
:10917000BAF1040FCADB4FF0000B2FE0002525E009
:109180005349681C01EBC00003C8CDE90C015048ED
:1091900000EBC50003C8CDE90A01DDE90C23FDF7AA
:1091A00041FB11D24A4800EBC500C0C84849681CC1
:1091B00001EBC00103C9464A02EBC50203C24449A0
:1091C000681C01EBC000C0C0681CC5B2CBF1040034
:1091D000A842D5DC0BF1010000F0FF0BBBF1040F3E
:1091E000CCDB3C49D1E90601CDE908013949D1E997
:1091F0000401CDE90601DDE90823FDF716F9CDE903
:109200000A013449D1E90201CDE90801DDE90A2367
:10921000FDF70BF90022304BCDE90C01FDF71EFAEA
:109220002E4A03C22A49D1E90601CDE9080128499D
:10923000D1E90401CDE90601DDE90823FDF7F5F8E0
:10924000CDE90A012248C1688068CDE90801DDE95D
:109250000A23FDF7EAF800221F4BCDE90C01FDF7C8
:10926000FDF91F4A03C2002213461D4903C9FDF739
:10927000D9FA4BD000221346184903C9FDF7D2FA98
:1092800044D018480068401C164908600846006829
:109290000A2829E031000020F8090020A807002052
:1092A000600B0020D200002030000020A808002021
:1092B0000000F03F00004E4000005940740B0020B9
:1092C0005501002054010020180C0020400C002003
:1092D000F00B0020C80B002000000840C000002058
:1092E000C80000205001002009D1484903C9484A5C
:1092F00003C24848D0E90010474AC2E90010474875
:1093000000680A2802DD0B204449086044480078C0
:1093100001282ED1002213463E4903C9FDF782FAE7
:1093200006D1002213463F4903C9FDF77BFA58D006
:10933000364803C8CDE90201364803C8CDE900012B
:10934000394838490CC803C905F03CF8374A03C20C
:109350002E4803C8CDE902012E4903C9CDE9000119
:10936000314830490CC803C904F050FF304A03C2E9
:1093700037E02B48007802282ED1002213462549D9
:1093800003C9FDF74FFA06D100221346294903C944
:10939000FDF748FA25D0284803C8CDE90201254841
:1093A00003C8CDE9000119481A490CC803C905F0E2
:1093B00009F81E4A03C2154803C8CDE90201154940
:1093C00003C9CDE900011C481A490CC803C904F0BF
:1093D0001DFF174A03C204E000211848134AC2E9DE
:1093E00000100020164908800CE01548018800880C
:1093F000401C134A1080B1F57A7F03DD4FF47A7078
:109400001146088011B0BDE8F08F0000C8000020B0
:1094100098000020C0000020A00000205001002083
:109420000A01002080000020780000206800002051
:10943000A8000020900000208800002000002440A8
:10944000D000002010B54FF48000FFF7B5F930B11F
:109450000120094908708005FFF7EEF80AE04FF493
:109460000010FFF7A9F928B1012004490870400550
:10947000FFF7E2F810BD00003100002030000020AE
:1094800010B500241848007830280FDB1648007803
:1094900030386421484314494978303901EB81015F
:1094A00000EB41011048807830380C1831210F480A
:1094B00003F099F800BF80210C4802F0C6FF002895
:1094C000F9D00B4801780078401C094A1070FA293D
:1094D00007DDFA20114608700020034988704870A3
:1094E0000870204610BD000025070020003801400C
:1094F000A406002010B502F0E7FD02F04FFE10BDFB
:109500002DE9F84F0F49C868FDF779F980464246C2
:109510000B464FF066300C49FDF7A0F806460022D6
:109520000A4BFDF723F804460D46972022462B46AA
:109530000090074804F03AFC8246CAF17900BDE881
:10954000F88F00002000002066A640400000244064
:10955000E801002010B555480078012807D1C10363
:109560005348FFF7F7FB02205049087015E04F48B9
:109570000078022811D14F4801680068401C4D4A0C
:109580001060642909DB4FF400414948FFF7E0FB14
:10959000002046490870474908604448407801283F
:1095A00007D101024448FFF7D5FB02203F4948702C
:1095B00015E03E484078022811D140480168006813
:1095C000401C3E4A1060642909DB4FF480713A4820
:1095D000FFF7BEFB00203549487038490860334822
:1095E0008078012807D141023348FFF7B3FB0220FE
:1095F0002E49887015E02D488078022811D1304816
:1096000001680068401C2E4A1060642909DB4FF491
:1096100000712948FFF79CFB0020244988702849E5
:1096200008602248C078012807D181022248FFF74C
:1096300091FB02201D49C87015E01C48C078022823
:1096400011D1204801680068401C1E4A106064293E
:1096500009DB4FF480611848FFF77AFB00201349BB
:10966000C8701849086011480079012807D1C10263
:109670001148FFF76FFB02200C49087115E00B48F9
:109680000079022811D1104801680068401C0E4A78
:109690001060642909DB4FF400610748FFF758FBAD
:1096A0000020024908710849086010BD34000020FC
:1096B000000C01403C00002000140140400000204C
:1096C00044000020480000204C00002008B5012183
:1096D000282001F023FA4FF47060ADF8000010204C
:1096E0008DF8030003208DF8020069460548FFF756
:1096F0005BFA4FF40040ADF8000069460248FFF7FE
:1097000053FA08BD00140140000C014002A003F010
:1097100007F800BFFEE700000D0A2068617264666A
:1097200061756C74206572720D0A0000024602F5C4
:10973000FA6101F0030080B94FF4C87091FBF0F3B7
:1097400000FB131028B1642091FBF0F300FB131011
:1097500008B1012070470020FCE70020FAE7000074
:1097600010B5044624B180213448FFF7F3FA03E032
:1097700080213248FFF7ECFA2CB14FF480712F486A
:10978000FFF7E8FA04E04FF480712C48FFF7E0FAA5
:109790002CB14FF400712948FFF7DCFA04E04FF4D4
:1097A00000712648FFF7D4FA2CB14FF480612348AA
:1097B000FFF7D0FA04E04FF480612048FFF7C8FAC1
:1097C0002CB14FF400611D48FFF7C4FA04E04FF4D8
:1097D00000611A48FFF7BCFA2CB14FF480511748CA
:1097E000FFF7B8FA04E04FF480511448FFF7B0FADD
:1097F0002CB14FF400511148FFF7ACFA04E04FF4DC
:1098000000510E48FFF7A4FA2CB14FF480410B48E9
:10981000FFF7A0FA04E04FF480410848FFF798FAF8
:109820002CB14FF400410548FFF794FA04E04FF4DF
:1098300000410248FFF78CFA10BD000000180140FB
:109840007047000008B50121482001F067F94FF684
:109850008070ADF8000010208DF8030003208DF813
:10986000020069460548FFF79FF94FF48040ADF8C4
:10987000000069460248FFF797F908BD001801404B
:10988000000C014008B50121482001F047F94FF4D0
:109890008070ADF8000010208DF8030003208DF8D3
:1098A000020069460E48FFF77FF97C20ADF8000002
:1098B00010208DF8030003208DF802006946094846
:1098C000FFF772F9782007491031086088150449BC
:1098D00010310860042003491031086008BD000001
:1098E000000C01400018014000BFFEE710B502F077
:1098F00049F802F0AFF8642006490880091F088083
:1099000004490C390880091D088003490880091D95
:10991000088010BD400400403C08004000B59A4853
:10992000C078642802DD64209749C8709648C079E1
:10993000642802DD64209449C8719348C0780128E6
:1099400002DA00209049C8708F48C079012802DAF5
:1099500000208D49C8718C4840788B49097888422D
:1099600040D089488078642804DC87488078401D8E
:1099700085498870844880785F2802DB64208249AA
:10998000887082480088642805D17F4880787F49A4
:109990000839088007E07D48008820B97A48807837
:1099A0007A490C3908807848807864285AD17648FA
:1099B0004078012803D16420744908800DE0724882
:1099C0004078022803D100207049088005E06E48E5
:1099D0004078032801D100F0F7F96B4840786A49D4
:1099E00008703FE068498978674AD278881A002869
:1099F00001DB014600E04142052904DC6248C078F1
:109A00006149887016E0604880785F49C97888426B
:109A100005DD5D488078401F5B4988700AE05A4840
:109A200080785949C978884204DA57488078401DBF
:109A30005549887055480088642808D15248807874
:109A40005249083908806420091F08800AE04F48FD
:109A5000008838B94C4880784C490C39088064201B
:109A6000091D08804848407947490979884249D00A
:109A700045488079642804DC43488079401D424988
:109A80008871414880795F2802DD64203E498871F1
:109A90003E48001F0088642807D13B4880793C4934
:109AA00008806420091F08800BE03848001F0088E8
:109AB00038B9354880793649091F08806420091D66
:109AC00008803148807964285DD12F484079012889
:109AD00004D164202D49091F08800EE02A484079EE
:109AE000022804D100202949091F088005E02648E2
:109AF0004079032801D100F067F9234840792249D1
:109B0000087140E0204989791F4AD279881A0028D3
:109B100001DB014600E04142052904DC1A48C07916
:109B20001949887116E0184880791749C97988421F
:109B300005DD15488079401F134988710AE01248F5
:109B400080791149C979884204DA0F488079401D2B
:109B50000D4988710D48001F0088642807D10A4804
:109B600080790B4908806420091F08800BE00748B2
:109B7000001F008838B9044880790549091F08800A
:109B80006420091D088000BD9E01002040040040A3
:109B90004008004010B5642034498870C870012026
:109BA000087048706420C87188710120087148717C
:109BB00064202F490880091F08802D490C3908802E
:109BC0002C49088064240BE029480838048029487F
:109BD000001D04800A20FEF72DFEA4F10A00C4B285
:109BE0000A2CF1DA00240BE02148083804802148CF
:109BF000001D04800A20FEF71DFE04F10A00C4B215
:109C00005A2CF1DD64201A49083908801949091DC8
:109C10000880002016490880091F08806420FEF78C
:109C200009FE64240AE012480C38048011480480BC
:109C30000A20FEF7FFFDA4F10A00C4B20A2CF2DAF2
:109C400000240AE00A480C3804800A4804800A20EC
:109C5000FEF7F0FD04F10A00C4B25A2CF2DD6420D4
:109C600003490C3908800349088010BD9E0100207B
:109C7000400400403C08004070B504460E461546BE
:109C800014B101203F490870072C6FD2DFE804F0BF
:109C90001C0410323356620000203B4908603146F4
:109CA000022000F087F82946022000F079F866E0EB
:109CB0000020354908603146012000F07BF8294634
:109CC000012000F06DF85AE00021032000F072F846
:109CD0000021032000F064F800202B4908602B4885
:109CE0000078012805D02A48807900F0F80028493A
:109CF000887144E000BFAE4207DD022022490860BF
:109D00004FF4FA702349086008E0AE4206DA0420F6
:109D10001D4908604FF4FA701F4908601F48007819
:109D2000012802D10020184908603146022000F0C5
:109D300041F82946022000F033F820E031460120A6
:109D400000F038F82946022000F02AF804200E49D5
:109D5000086014E002200C490860314600F02AF83F
:109D60002946012000F01CF809E0FFE7002102204D
:109D700000F020F80021022000F012F800BF00BF20
:109D800070BD00009D010020EC000020510000206B
:109D90000E010020F0000020F40000200D01002042
:109DA000034A5071C1F16402014BDA71704700003F
:109DB0009E010020034A5070C1F16402014BDA7029
:109DC000704700009E01002064200B498870C87015
:109DD0000320087048706420C871887103200871DE
:109DE0004871642005490880091D088004490880DD
:109DF000091D0880704700009E01002034040040C7
:109E00003C080040704708B54FF4E06000F048F8A7
:109E100027208DF8000000208DF8010001208DF82A
:109E200002008DF80300684600F002F808BD00004B
:109E300070B5002100230F22C47804B3154C2468A8
:109E400004F4E064C4F5E064210AC1F10403CA40EB
:109E5000447804FA03F184781440214309010E4C3C
:109E60000678A155047804F01F050124AC4005785C
:109E70006D11AD0005F1E025C5F8004109E0047859
:109E800004F01F050124AC40044D0678761145F816
:109E9000264070BD0CED00E000E400E080E100E051
:109EA00002490143024A1160704700000000FA05B0
:109EB0000CED00E030B500240CE0002506E00020A9
:109EC000074901EBC5010855681CC5B2802DF6DBBA
:109ED000601CC4B2082CF0DB00F008F930BD0000B3
:109EE000680C0020F0B5144600267F2801DC3F29CD
:109EF00000DDF0BD0B46CF1701EB5777FF10C7F120
:109F00000707FAB2CF1701EB5777FF10A1EBC7078E
:109F1000FDB2C5F107070123BB40DEB24CB10A4BCD
:109F200003EBC0039B5C3343074F07EBC007BB54F5
:109F300008E0054B03EBC0039B5CB343024F07EB08
:109F4000C007BB5400BFD4E7680C002010B56048C0
:109F5000806940F010005E4988610846806940F0E1
:109F6000200088615B4800685B49084059490860E7
:109F700008460068594908435649086055480C305E
:109F8000006840F0080053490C310860084600683A
:109F900040F0400008600846006840F0200008607B
:109FA0004F48006820F00F004D49086008460068DF
:109FB00040F0030008600846C06840F00100C86037
:109FC0000846406820F4700048600846406840F445
:109FD000401048600846C06840F40050C860012046
:109FE000404908604049C1F88C0100203D49091FE3
:109FF00008606420FEF71EFC01203B49C1F8940173
:10A000000021AE2000F0C6F90021D52000F0C2F9F1
:10A010000021502000F0BEF90021A82000F0BAF97C
:10A0200000213F2000F0B6F90021D32000F0B2F962
:10A030000021084600F0AEF90021402000F0AAF906
:10A0400000218D2000F0A6F90021142000F0A2F9D3
:10A050000021202000F09EF90021022000F09AF952
:10A060000021A12000F096F90021C02000F092F913
:10A070000021DA2000F08EF90021122000F08AF988
:10A080000021812000F086F90021EF2000F082F904
:10A090000021D92000F07EF90021F12000F07AF9AA
:10A0A0000021DB2000F076F90021302000F072F969
:10A0B0000021A42000F06EF90021A62000F06AF92A
:10A0C0000021AF2000F066F9FFF7F4FE10BD00009C
:10A0D0000010024000140140FF0F0FF00030300369
:10A0E00000100140988122420080224210B514499C
:10A0F0000978B031C8B2002100F04CF900210846BF
:10A1000000F048F90021102000F044F900240AE092
:10A110000C4901EBC4010A4A1278885C012100F065
:10A1200039F9601CC4B2802CF2DB05480078401C71
:10A13000C0B203490870082801DB0020087010BD78
:10A14000A6010020680C002030B500241CE004F1BA
:10A15000B001C8B2002100F01DF90021084600F04E
:10A1600019F90021102000F015F9002508E0084930
:10A1700001EBC501085D012100F00CF9681CC5B2B6
:10A18000802DF4DB601CC4B2082CE0DB30BD000085
:10A19000680C00202DE9F84F80460F4616461C46F5
:10A1A000BA462046E31704EB5373DB1021464FEA0F
:10A1B000E47C04EB5C7C4FEAEC0CA4EBCC0CBCF133
:10A1C000000F02D04FF0010C01E04FF0000C63448F
:10A1D000224604EBD27C4FEA6C0C03FB0CF303F039
:10A1E000FF0BA6F12000C6B200254EE00C2C07D1D3
:10A1F00006EB4600274901EB8000405D009013E02C
:10A20000102C05D1244800EB0610405D00900BE0B7
:10A21000182C07D106EBC600204901EB8000405DF9
:10A22000009001E0BDE8F88F4FF0000927E00098AA
:10A2300000F0800028B1394640460A9AFFF752FEE6
:10A2400009E00A9808B9012000E0002002463946DA
:10A250004046FFF747FE00984006000E0090781C2D
:10A26000C7B2A7EB0A00A04205D1574608F101008A
:10A2700000F0FF0806E009F1010000F0FF09B9F164
:10A28000080FD4DB00BF681CC5B25D45AEDB00BF64
:10A29000C8E700005C060108D00A0108C0100108E8
:10A2A0002DE9FF4F81B0074691461E460E9D4FF0A7
:10A2B000000A002439E0301B401EC1B20A2004F01D
:10A2C0000DFAB9FBF0F00A21B0FBF1F201FB120824
:10A2D000BAF1000F16D1701EA04213DDB8F1000FC5
:10A2E0000ED10120AB4605EBDB71491001FB047177
:10A2F0000090C8B22B4620220299FFF74BFF12E0D4
:10A300004FF0010A0120AB4605EBDB71491001FB60
:10A3100004710090C8B208F13001CAB22B4602990C
:10A32000FFF738FF00BF601CC4B2B442C3DB05B006
:10A33000BDE8F08FF8B506460F4615461C4621E0ED
:10A3400004EBD4714910C1F18001B14202DA002658
:10A350003819C7B2C4F14000B84204DA00200646FA
:10A360000746FFF7A7FD012000902A7823463946CB
:10A370003046FFF70FFF204604EBD07106EB61017A
:10A38000CEB26D1C28787E2802DC28782028D7DA07
:10A39000F8BD000010B5144B19600023134CC4F82D
:10A3A0009831002215E00023114C236000F0800357
:10A3B00023B101230E4C3434236003E000230C4C02
:10A3C0003434236001230A4C23604306180E531CC7
:10A3D000DAB2082AE7DB0123034C0C342360034C78
:10A3E000C4F88C3110BD00008C81224200802242D2
:10A3F0008001224238B562480078322800D138BD49
:10A400006048006890B90C235FA200210846FFF75E
:10A4100091FF0C2000905D4802230021026F102064
:10A42000FFF73EFF012057490860A5E05548006846
:10A43000012818D10C2356A200211C20FFF77AFF17
:10A440000C200090514802230021426F2020FFF78A
:10A4500027FF0C234FA200213C20FFF76BFF0220B7
:10A460004849086088E047480068022825D14A48E2
:10A4700080780A2190FBF1F40C200223224600216F
:10A4800000905A20FFF70CFF0C2344A20021662005
:10A49000FFF750FF404880780A2190FBF1F201FB62
:10A4A00012040C2002232246002100906A20FFF7AC
:10A4B000F7FE0320334908605EE032480068032855
:10A4C00016D10C2336A219460020FFF733FF364978
:10A4D00003C9FCF77BF904460C20062322460146FB
:10A4E00000901E20FFF7DCFE04202649086043E0B0
:10A4F00024480068042816D10C232CA2182100201F
:10A50000FFF718FF2B4903C9FCF760F904460C203C
:10A5100006232246182100901E20FFF7C1FE0520C9
:10A520001849086028E017480068052824D10C2342
:10A5300021A224210020FFF7FDFE204903C9FCF7DA
:10A5400045F904460C2006232246242100901820B9
:10A55000FFF7A6FE0C231AA230210020FFF7EAFE27
:10A560000C20062300901748027830211820FFF7AE
:10A5700097FE002003490860FFF7B8FD00BF3EE7E3
:10A580003C0100205801002047505300F8090020EA
:10A590002F00000042415400A00B00202E000000BC
:10A5A0004C6E672000000000C80000204C61742041
:10A5B00000000000C000002043410000080000200F
:10A5C00042000000A801002000B5FFF773FC0C2337
:10A5D00003A224210020FFF7ADFEFFF7B5FD00BD6B
:10A5E0004E4F20436F6D70617373200000B5FFF70D
:10A5F00061FC0C2303A218210020FFF79BFEFFF74C
:10A60000A3FD00BD4E4F20475053000000B5FFF79B
:10A6100051FC0C2303A200210846FFF78BFEFFF735
:10A6200093FD00BD4E4F20526164696F20467265F4
:10A630007175656E63793B00704700002DE9F04746
:10A6400005460E4617469846DDF8209000248048BF
:10A6500001780078401C7E4A107000297ED10020CD
:10A66000114608707B4860C07B48C0E900787521BE
:10A670007A4801F0B8FF00BF8021784801F0E5FE7C
:10A680000028F9D076480178744801F0ACFF00BF8B
:10A690008021724801F0D9FE0028F9D07048417835
:10A6A0006E4801F0A0FF00BF80216C4801F0CDFE94
:10A6B0000028F9D00421694801F095FF00BF8021EE
:10A6C000664801F0C2FE0028F9D000240DE0614880
:10A6D000015D624801F087FF00BF80215F4801F003
:10A6E000B4FE0028F9D0601CC4B2082CEFDB0024B3
:10A6F0000DE05948015D594801F075FF00BF802108
:10A70000564801F0A2FE0028F9D0601CC4B2082C03
:10A71000EFDB4946514801F066FF00BF80214F48FA
:10A7200001F093FE0028F9D0B9F1050F06D14C488D
:10A7300090F82110494801F056FF04E0494841795A
:10A74000464801F050FF00BF8021444801F07DFEE3
:10A750000028F9D0424890F8201000E075E03F480A
:10A7600001F041FF00BF80213C4801F06EFE00284F
:10A77000F9D03B48406AC0F30F21384801F033FF5D
:10A7800000BF8021354801F060FE0028F9D0344830
:10A7900090F82410314801F026FF00BF80212F4897
:10A7A00001F053FE0028F9D02D48C1782B4801F064
:10A7B0001AFF00BF8021294801F047FE0028F9D088
:10A7C00027488178254801F00EFF00BF80212348EB
:10A7D00001F03BFE0028F9D0214881791F4801F0A3
:10A7E00002FF00BF80211D4801F02FFE0028F9D094
:10A7F00000211A4801F0F7FE00BF8021174801F040
:10A8000024FE0028F9D01648C179144801F0EBFE67
:10A8100000BF8021114801F018FE0028F9D00D2159
:10A820000E4801F0E0FE00BF80210C4801F00DFE53
:10A830000028F9D00A21094801F0D5FE00BF802187
:10A84000064801F002FE0028F9D0BDE8F0870000BC
:10A85000150700202801002030010020004800409A
:10A86000A00B00208818002008B5052000900348A0
:10A8700003490CC803C9FFF7E1FE08BDC80000206A
:10A88000C00000202DE9FF4700BF7148007809286B
:10A890000CD17048007848B96F4801680068401CC6
:10A8A0006D4A1060322901D2BDE8FF876A4801680D
:10A8B0000068401C684A1060322908D26548007858
:10A8C000092804D16348007861490870ECE700204A
:10A8D0006149086003F09EFA6048007805280AD1B3
:10A8E000002211461046FFF7C7F9072059490870A2
:10A8F00000205B49087059480078062878DB5748E3
:10A9000000781E2802D114205449087007205149AC
:10A9100008705448006F002804DD53480068401C4C
:10A92000514908604E480078002877D14E480068A9
:10A93000B0F57A7F72D34FF47A704B4908604B4878
:10A9400000221346D0E900613046FBF76BFF08D1C7
:10A95000474800221346D0E900613046FBF762FF0A
:10A960000AD0424903C9434A03C24148D0E9001012
:10A97000414AC2E900100BE04048D0E900103D4ACE
:10A98000C2E900103E48D0E900103B4AC2E900107D
:10A9900000221346374903C9FBF744FF06D10022C2
:10A9A0001346354903C9FBF73DFF37D0354803C887
:10A9B000CDE90201344903C9CDE900012D482E49F2
:10A9C0000CC803C903F0FEFC04460D4600222F4BC1
:10A9D00020462946FBF73EFF20D20120204908707F
:10A9E00002202B49087001202A49087016E0FFE771
:10A9F0001A480078052803DD0720164908700DE085
:10AA000016480078052809DA00201749086011481F
:10AA10000078072802D100200E4908701E490868F6
:10AA2000FBF7EDFE064600221C4BFBF7A5FD80461A
:10AA30004FF033321A4BFBF7F5FE02D20A200549DC
:10AA40000870044800780249087000BF2CE7000035
:10AA50005E010020A80100203801002050000020E5
:10AA600051000020F809002060010020A809002002
:10AA7000D0090020780000208000002098000020ED
:10AA8000A0000020C8000020C000002000004940B5
:10AA90000B0100200A0100202000002000001840C7
:10AAA00033332B4001460020034A506820F44040D5
:10AAB00008435060704700000010024029B1064A68
:10AAC00052690243044B5A6104E0034A52698243CB
:10AAD000014B5A61704700000010024029B1064A3C
:10AAE000D2690243044BDA6104E0034AD26982432B
:10AAF000014BDA61704700000010024029B1064A9C
:10AB000012690243044B1A6104E0034A126982434A
:10AB1000014B1A61704700000010024029B1064A3B
:10AB200092690243044B9A6104E0034A92698243AA
:10AB3000014B9A61704700000010024029B1064A9B
:10AB4000D2680243044BDA6004E0034AD2688243CD
:10AB5000014BDA6070470000001002400149C864F0
:10AB600070470000000042420F48006840F00100BA
:10AB70000D490860084640680C4908400A49486089
:10AB8000084600680A490840074908600846006806
:10AB900020F4802008600846406820F4FE004860E9
:10ABA0004FF41F0088607047001002400000FFF85B
:10ABB000FFFFF6FE30B500210022002400232D4DBA
:10ABC0006D6805F00C0121B1042905D0082923D1B5
:10ABD00005E0294D056022E0274D05601FE0254D69
:10ABE0006D6805F47012234D6D6805F480340225FC
:10ABF00005EB92421CB9214D554305600BE01D4DFC
:10AC00006D6805F400351DB11C4D5543056002E02B
:10AC1000194D5543056002E0174D056000BF00BFA8
:10AC2000144D6D6805F0F0010909154D6B5C056860
:10AC3000DD4045600F4D6D6805F4E061090A104D77
:10AC40006B5C4568DD4085600A4D6D6805F46051B8
:10AC5000C90A0B4D6B5C4568DD40C560054D6D68EC
:10AC600005F44041890B074D6B5CC568B5FBF3F5F6
:10AC7000056130BD0010024000127A0000093D005D
:10AC8000400700205007002010B501460022002395
:10AC900000204A11012A02D1094C236806E0022A49
:10ACA00002D1074C236A01E0054C636A01F01F02E0
:10ACB000012494401C400CB1012000E0002010BD94
:10ACC000001002400248406800F00C00704700008D
:10ACD0000010024001460020034A506820F0F000B6
:10ACE0000843506070470000001002401149096895
:10ACF00021F480310F4A11601146096821F4802146
:10AD00001160B0F5803F03D0B0F5802F0ED106E082
:10AD10000849096841F48031064A116007E0054995
:10AD2000096841F4A021034A116000E000BF00BFA0
:10AD3000704700000010024001460020034A50689E
:10AD400020F4E060084350607047000000100240AB
:10AD500001460020034A506820F4605040EAC100D8
:10AD600050607047001002400149086670470000BB
:10AD70000000424202460020044B586820F47C1038
:10AD800042EA01031843014B58607047001002402B
:10AD900001460020034A506820F003000843506039
:10ADA000704700000010024038B5002000900024D9
:10ADB000002500BF3120FFF767FF05460098401CC3
:10ADC00000900098B0F5A06F01D0002DF2D0312096
:10ADD000FFF75AFF08B1012400E00024204638BDE7
:10ADE00010B503F0ADFB04467CB90DE00120FEF781
:10ADF000B7FCC820FDF71EFD0020FEF7B1FCC820FF
:10AE0000FDF718FDFFF702FCF0E7012C11D105F06A
:10AE10005BFB422005F0DCFB0620FDF70BFD03F099
:10AE20002DF90620FDF706FD5521002005F090FBC9
:10AE30000EE0422005F0CCFB0620FDF7FBFC03F002
:10AE40001DF90620FDF7F6FC5521002005F080FBDA
:10AE500010BD30B503460C461546002207E01846E3
:10AE600000F008F824F812009B1C501C82B2AA4281
:10AE7000F5DB30BD01460888704700002DE9F05F22
:10AE800080468A461746B8F1006F02D333488045A2
:10AE900001D3BDE8F09FFDF7A3FDA8F1006B4FEAD9
:10AEA000DB25CBF34909C9F58064A74200DC3C46A9
:10AEB0004DE04FF0006101EBC5204A142849FFF72F
:10AEC000C8FF00260BE009EB0600254931F8100009
:10AED0004FF6FF71884200D003E0701C86B2A64294
:10AEE000F1DB00BFA6421BDA4FF0006101EBC52089
:10AEF000FDF7DEFC002608E03AF8160006EB090133
:10AF0000174A22F81100701C86B2A642F4DB4FF0FB
:10AF1000006101EBC5204A14114900F023F804E058
:10AF200022465146404600F01DF8A74200D10FE0EE
:10AF30006D1C4FF000090AEB440AA044381B87B28D
:10AF4000B7F5806F02DD4FF4806400E03C46B0E767
:10AF500000BFFDF7EDFC00BF9BE700000000080804
:10AF6000881000202DE9F04105460E4617460024C2
:10AF700007E036F814102846FDF7E4FCAD1C601C11
:10AF800084B2BC42F5DBBDE8F08170472DE9F04F9B
:10AF900085B000BF032004904FF000094FF0000A75
:10AFA000BC48007801280DDBBA4801780078401CC5
:10AFB000B84A1070642902DD00201146087005B0FF
:10AFC000BDE8F08FB448007801287DD1B34880797E
:10AFD00000F0F800B14988710846807940F002001D
:10AFE0008871AF4830C822462B46AE4903C9FBF7EB
:10AFF000BDFA0746FBF7CBFBB0F1000B01DB58466F
:10B0000001E0CBF100001E2803DA0120A6490870F8
:10B0100002E00020A449087022462B46A14903C93A
:10B02000FBF7A4FACDE90201FBF7B1FBB0F1000B8D
:10B0300001DB584601E0CBF1000005282FDB0022A0
:10B040009A4B984903C9FBF7F0F922462B46CDE904
:10B050000001FBF78BFACDE90201FBF798FBB0F199
:10B06000000801DB404601E0C8F10000052816DBBE
:10B0700000228E4B8B4903C9FBF778FA22462B46F8
:10B08000CDE90001FBF772FACDE90201FBF77FFB86
:10B09000071E01DB384600E0784205281FDA8448A5
:10B0A00001680068401C824A106021B96422114680
:10B0B0000120FEF7E1FD7E4800680A2802DD0A2033
:10B0C0007B490860102000E0DBE07A49086020201E
:10B0D00008600820091F08604020086099E01020DF
:10B0E0007449091F08602020086022462B466D49DC
:10B0F00003C9FBF797FB2DD200226C4B694903C9AA
:10B10000FBF793F9074622462B46FBF72FFACDE9CA
:10B110000201FBF73CFBB0F1000B01DB584601E0FC
:10B12000CBF1000081465F480CC820462946FBF75A
:10B130001DFA0746FBF72BFBB0F1000B01DB58466D
:10B1400001E0CBF100008246B9F5B47F30DDA9F50E
:10B15000B4792DE022462B46524903C9FBF706FA83
:10B160000746FBF714FBB0F1000B01DB584601E08A
:10B17000CBF10000814600224C4B20462946FBF7CC
:10B1800054F9CDE9020147480CC80298FBF7EEF9E3
:10B190000746FBF7FCFAB0F1000B01DB584601E073
:10B1A000CBF100008246BAF5B47F01DDAAF5B47A8E
:10B1B000A9EB0A0000EBD0714910049A01FB02F6DA
:10B1C000232E00DD232616F1230F01DA6FF022066D
:10B1D000A9EB0A00002801DB014600E04142B42946
:10B1E0000DDAD14505DD3C2211460520FEF744FD70
:10B1F0000CE03C2211460620FEF73EFD06E006F17B
:10B200003C02C6F13C010320FEF736FD0020284930
:10B210000860294829490CC803C9FBF703FB36D04D
:10B220000022274B244903C9FBF7FCFA22D2002055
:10B230001F490860002211461046FEF71DFD002040
:10B24000154908701548807900F0F8001349887195
:10B250000846807940F00300887100201949087081
:10B2600010201449091F0860202008600820086089
:10B27000402008601048D0E90010104AC2E90010D0
:10B2800005E00020084908700D490B4A03C200BFC1
:10B2900095E600003F010020510000200E01002033
:10B2A00008000020A80000200D010020008076404A
:10B2B00040010020141801406800002048010020CF
:10B2C00000002440A801002010B500F031F810BDA6
:10B2D00010B5FFF749FC4FF48030FFF707FDFFF78B
:10B2E00063FD0446012C1FD10020FFF7F3FC002072
:10B2F000FFF72EFDA002FFF71FFD4FF4E011200421
:10B30000FFF738FD0120FFF72FFD00BF3920FFF7C1
:10B31000BBFC0028FAD00220FFF73AFD00BFFFF780
:10B32000D1FC0828FBD101E000BFFEE710BD000002
:10B330000CB50020019000903348006840F4803044
:10B340003149086000BF3048006800F400300090C8
:10B350000198401C0190009818B90198B0F5A06FB1
:10B36000F1D12948006800F4003010B101200090AC
:10B3700001E0002000900098012843D12348006894
:10B3800040F01000214908600846006820F00300E2
:10B3900008600846006840F0020008601A484068EB
:10B3A000194948600846406848600846406840F4CB
:10B3B000806048600846406820F47C104860084679
:10B3C000406840F4E81048600846006840F080702B
:10B3D000086000BF0C48006800F000700028F9D039
:10B3E0000948406820F00300074948600846406863
:10B3F00040F00200486000BF0348406800F00C00C5
:10B400000828F9D10CBD00000010024000200240C5
:10B4100010B500F0B3F8FEF799FD0C2327A2002128
:10B420000846FEF787FFFEF78FFE0120FFF796FB29
:10B4300004F05CFEFEF726FA04F036FE00F0DFF9B9
:10B4400005F024F800F008F9FDF7C8FC03F038FF18
:10B450001D49016003F034FF1C4941601C4804F0A1
:10B4600058F81C4803F0C8FD02201B490870FCF77F
:10B47000E9FEFEF73FF8FEF739FAFEF7E3F901209F
:10B48000FEF76EF90120FEF7DBF96420FDF7D2F933
:10B49000FFF7A6FCFEF77EFBFCF7B0F80020FEF7F6
:10B4A0005FF9FEF713F9FBF79FFEFCF7D3FE02F0FE
:10B4B0006DFE0A490860FEF7FDFC10BD646562750B
:10B4C00067206D6F6465000029010108A7E100088D
:10B4D000F8090020600B0020A801002018010020BE
:10B4E00010B500F04BF800F0EFFDFFF7F1FE012082
:10B4F000FFF734FB04F0FAFDFEF7C4F900F07FF922
:10B5000004F0C4FFFDF76AFC03F0DAFE15490160A0
:10B5100003F0D6FE14494160144803F0FAFF1448C2
:10B5200003F06AFDFCF78EFEFDF7E4FFFEF7DEF99F
:10B53000FEF788F90120FEF713F90120FEF780F9E4
:10B540000020FEF70DF9FEF7C1F8FBF74DFE0022D3
:10B550005F217F2001F06CF8FDF762FA3220FDF7E1
:10B5600069F910BD29010108A7E10008F8090020C8
:10B57000600B002010B500F09BFD10BD30B51A48DF
:10B5800000681A4AB0FBF2F1B1F1807F01D30120CB
:10B590001DE021F07F40401E4FF0E0225061501727
:10B5A0000F22002807DA13071D0E114B00F00F04BD
:10B5B000241F1D5503E013071C0E0E4B1C5400BF27
:10B5C00000204FF0E022906107201061002008B1B8
:10B5D00000BFFEE74FF0E020006920F001004FF0CF
:10B5E000E021086130BD00007407002040420F00D8
:10B5F00018ED00E000E400E010B51248006840F0EB
:10B60000010010490860084640680F4908400D498C
:10B610004860084600680D4908400A490860084625
:10B62000006820F4802008600846406820F4FE008E
:10B6300048604FF41F008860FFF746FE0448054944
:10B64000086010BD001002400000FFF8FFFFF6FE8A
:10B650000060000808ED00E00EB5144800F01EFA86
:10B660000121C802FFF75AFA41F28830ADF8040010
:10B670004720ADF800000020ADF80600ADF802004C
:10B680008DF808006946094800F078FC0121074858
:10B6900000F0F2F900F0C4FC01221146034800F06A
:10B6A00008FB0121014800F0EDF90EBD002C01401E
:10B6B00010B50121064800F0EBFA40B105480078CA
:10B6C000401C044908700121014800F0D8F910BD60
:10B6D000002C01400000002008B501210846FFF7BA
:10B6E000FDF901210520FFF719FA0220ADF800004D
:10B6F00018208DF8030003208DF8020069460248E7
:10B70000FDF752FA08BD00000008014008B502200C
:10B71000ADF8000010208DF8030001208DF8020024
:10B7200069460448FDF740FA02210248FDF710FB84
:10B7300008BD00000008014030B587B005460C4642
:10B74000681E80B2ADF814000020ADF81000ADF80E
:10B750001600ADF8120004A94FF0804000F00EFC76
:10B760006020ADF800000220ADF808000120ADF81F
:10B7700002002046FAF7F7FF80B2ADF806006946EE
:10B780004FF0804000F0F4FA0821C80600F042FBB8
:10B790000121880700F064F90121880700F072F99F
:10B7A00007B030BD00B587B047F2D700ADF8140040
:10B7B0000020ADF81000ADF81600ADF8120004A995
:10B7C0004FF0804000F0DAFB6020ADF8000002206E
:10B7D000ADF808000120ADF802000020ADF8060029
:10B7E00069464FF0804000F0C3FA0821C80600F017
:10B7F00011FB0121880700F033F907B000BD10B537
:10B80000FFF76AFFFFF7CEFF10BD000000B587B05D
:10B810006320ADF814004820ADF810000020ADF80A
:10B820001600ADF8120004A9254800F0A7FB60201F
:10B83000ADF800000120ADF802006420ADF806006C
:10B840000020ADF8080069461D4800F03BFA0821C9
:10B850001B4800F083FA0120ADF802006420ADF827
:10B8600006006946164800F083FA0821144800F0E3
:10B87000D1FA0120ADF802006420ADF80600694657
:10B880000F4800F0D5FA08210D4800F021FB0120F7
:10B89000ADF802006420ADF806006946084800F0E3
:10B8A00021FB0821064800F05BFB0121044800F061
:10B8B000D7F80121024800F0E5F807B000BD00000C
:10B8C0000004004008B501210220FFF707F901211B
:10B8D0000846FFF723F901211020FFF71FF9012186
:10B8E0000848FDF7EDF94FF47070ADF8000018202E
:10B8F0008DF8030003208DF8020069460248FDF729
:10B9000053F908BD000C1A000010014010B50421C5
:10B91000164800F0B4F80221144800F0B0F81348BB
:10B9200000F0B3F912490880104800F0ABF9114952
:10B9300008800F48008890B10C4800F0A3F96421FA
:10B9400048430B49098890FBF1F00B4908800848EF
:10B9500000880A4991FBF0F00949086004E00020E2
:10B96000054908800649086010BD00000004004039
:10B970001A070020180700201C07002000A24A0414
:10B980002007002010B5FFF79DFFFFF73FFF10BD18
:10B9900008B501210420FFF7A1F801210846FFF7AF
:10B9A000BDF801212020FFF7B9F801210803FDF7B8
:10B9B00087F94FF44040ADF8000018208DF80300DF
:10B9C00003208DF8020069460148FDF7EDF808BD37
:10B9D0000014014000B587B06320ADF81400482082
:10B9E000ADF810000020ADF81600ADF8120004A963
:10B9F000174800F0C3FA6020ADF800000120ADF850
:10BA000002006420ADF806000020ADF80800694689
:10BA10000F4800F00DFA08210D4800F059FA0120F6
:10BA2000ADF802006420ADF806006946084800F051
:10BA300059FA0821064800F093FA0121044800F061
:10BA40000FF80121024800F01DF807B000BD00000A
:10BA50000008004010B5FFF79BFFFFF7BBFF10BDCC
:10BA600021B1028842F08002028004E002884FF691
:10BA70007F731A4002807047CA4302827047CA43EC
:10BA80000282704721B1028842F00102028004E084
:10BA900002884FF6FE731A400280704710B50446C4
:10BAA0006848844208D10121C014FFF747F80021FB
:10BAB000E014FFF743F8C4E0B4F1804F08D101214E
:10BAC0000846FFF71BF800210120FFF717F8B8E040
:10BAD0005D48844208D101210220FFF70FF80021C0
